:020000040800F2
:100000005855012031030008957000083759000841
:10001000BD6E00084D0B0008B1A3000800000000F1
:100020000000000000000000000000007102000855
:10003000AD17000800000000CD0200081180000884
:100040004B0300084B0300084B0300084B03000858
:100050004B0300084B0300084B0300084B03000848
:100060004B030008ED180008F31800084B030008C4
:10007000CD120008D9120008E5120008F11200089C
:100080004B0300084B0300084B0300084B03000818
:10009000290C0008350C00084B030008F91800086B
:1000A0004B0300084B0300084B0300084B030008F8
:1000B0004B0300084B0300084B0300084B030008E8
:1000C0004B0300085159000845590008197C0008E5
:1000D000257C0008AD8700084B030008B98700089D
:1000E0004B0300084B0300084B0300084B030008B8
:1000F0004B030008E18000084B030008FD120008D4
:100100004B0300084B0300084B0300084B03000897
:100110004B0300084B0300084B0300084B03000887
:10012000091300084B0300081513000821130008E9
:100130002D1300084B0300084B0300084B03000875
:10014000410C00084D0C00084B030008ED7000083E
:10015000391300084513000851130008C58700082B
:10016000695900085D5900084B0300084B0300085B
:100170004B0300084B0300084B030008000000007D
:100180004B0300084B03000800F002F800F060F891
:100190000AA090E8000C82448344AAF10107DA45E2
:1001A00001D100F055F8AFF2090EBAE80F0013F0D4
:1001B000010F18BFFB1A43F001031847CCC600001B
:1001C000ECC600000A444FF0000C10F8013B13F09D
:1001D000070408BF10F8014B1D1108BF10F8015BA0
:1001E000641E05D010F8016B641E01F8016BF9D193
:1001F00013F0080F1EBF10F8014BAD1C0C1B09D1EA
:100200006D1E58BF01F801CBFAD505E014F8016B5B
:1002100001F8016B6D1EF9D59142D6D370470000ED
:100220000023002400250026103A28BF78C1FBD8FF
:10023000520728BF30C148BF0B6070471FB50BF095
:10024000E9FE9DE8030000F03FFA1FBD10B510BDA8
:1002500000F096FA1146FFF7F1FF0AF0F9FA00F004
:10026000B4FA03B4FFF7F2FF03BC00F0E5FA0000B4
:100270002C4B19680868B0E8F04F80F30988BFF389
:100280006F8F4FF0000080F311887047000000006E
:1002900008480068006880F308884FF0000080F389
:1002A000148862B661B6BFF34F8FBFF36F8F00DF64
:1002B00000BF00BF08ED00E0DFF80C00016841F46A
:1002C00070010160704700BF88ED00E0EFF3098026
:1002D000BFF36F8F134B1A681EF0100F08BF20ED8D
:1002E000108A20E9F04F106009B44FF0500080F3FD
:1002F0001188BFF34F8FBFF36F8F0BF0F7F84FF0FC
:10030000000080F3118809BC19680868B0E8F04F54
:100310001EF0100F08BFB0EC108A80F30988BFF3FD
:100320006F8F70478C000020EFF30580704700004E
:100330000948804709480047FEE7FEE7FEE7FEE779
:10034000FEE7FEE7FEE7FEE7FEE7FEE704480549B5
:10035000054A064B70470000D1800008890100085B
:1003600058D5002058550120581501205815012056
:1003700070B5064600F08CF9056806F10B0020F018
:100380000704B4429CBF002070BD2B466A68BAB116
:100390001068A04210D304F1080188423CBF5068A5
:1003A000586007D35168101941601168091B01603A
:1003B00058601460101D70BD13465268002AE7D1C2
:1003C0002146284600F06CF90028DED170BD70B5DA
:1003D0000446051F00F05CF90068002C14BF446857
:1003E00070BD002C18BFAC423CBF20466468F8D3F7
:1003F00001680A18AA4218BF456003D12A68054659
:100400001144016028684119A1421CBF6C6070BD95
:100410006168696021680844286070BD53EA020C75
:1004200000F069802DE9F04B4FF00006002B1FBF54
:10043000B3FA83F503FA05F424FA05F65E4012BF19
:100440001643B2FA82F502FA05F4C5F120051EBF83
:1004500022FA05FC44EA0C04203556EA044C4FEA23
:10046000144418BF641C4FF000084FF0000990427C
:1004700071EB030C39D3002919BFB1FA81F701FAE6
:1004800007F6B0FA80F700FA07F6C7F120071EBF9B
:1004900020FA07FC46EA0C062037B6FBF4FCA7EB73
:1004A0000507103F07F01F0BCBF120060CFA0BFBE2
:1004B0002CFA06F644BFB3460026202FA4BF5E46A2
:1004C0004FF0000B5BEA060C08BF4FF0010B19EB75
:1004D0000B09ABFB027C48EB0608C01B06FB02CCF9
:1004E0000BFB03CC71EB0C01C1E70B460246414606
:1004F0004846BDE8F08B13B54FF000004FF0000107
:10050000AFF30080BDE81C407047032A40F2308002
:1005100010F0030C00F0158011F8013BBCF1020F44
:10052000624498BF11F801CB00F8013B38BF11F8C5
:10053000013BA2F1040298BF00F801CB38BF00F8DC
:10054000013B11F0030300F02580083AC0F0088059
:1005500051F8043B083A51F804CBA0E80810F5E73D
:10056000121D5CBF51F8043B40F8043BAFF3008020
:10057000D20724BF11F8013B11F801CB48BF11F895
:10058000012B24BF00F8013B00F801CB48BF00F865
:10059000012B704710B5203AC0F00B80B1E818501D
:1005A000203AA0E81850B1E81850A0E81850BFF45D
:1005B000F5AF5FEA027C24BFB1E81850A0E81850FC
:1005C00044BF18C918C0BDE810405FEA827C24BF50
:1005D00051F8043B40F8043B08BF7047D20728BFDE
:1005E00031F8023B48BF11F8012B28BF20F8023B2D
:1005F00048BF00F8012B70474FF000020429C0F0FB
:10060000128010F0030C00F01B80CCF1040CBCF144
:10061000020F18BF00F8012BA8BF20F8022BA1EB96
:100620000C0100F00DB85FEAC17C24BF00F8012B7B
:1006300000F8012B48BF00F8012B70474FF0000273
:1006400000B5134694469646203922BFA0E80C50C8
:10065000A0E80C50B1F12001BFF4F7AF090728BFA3
:10066000A0E80C5048BF0CC05DF804EB890028BF1F
:1006700040F8042B08BF704748BF20F8022B11F048
:10068000804F18BF00F8012B7047704770477047C4
:100690000048704700D5002070477047704770478A
:1006A00038B504460A4600206946AFF300800028AA
:1006B00008BF38BD02460099204600F03FF80120EF
:1006C00038BD012000F054B8F8B5AFF300800546FE
:1006D00000200C46102000BF0646A819A0420DD9E4
:1006E000324669460020AFF30080070008BF00F0E3
:1006F0003FF80098A04218BF0546C419FFF7C8FF8D
:1007000005600746F01D20F007004619284600F056
:100710000AF8B44208BFF8BDA21B31463868BDE8EC
:10072000F84000F00BB800210160C0E901107047EB
:100730001020704700487047F8D4002003464068F6
:100740008C46002818BF88423CBF03464068F8D357
:1007500018681844884207D00CF1030020F0070005
:10076000001D411A521A0146081D0A60FFF72FBEEC
:1007700010B500F039F8BDE8104000F02FB8704710
:100780007546FFF7D7FFAE4605006946534620F091
:100790000700854618B020B5FFF7D8FDBDE820401A
:1007A0004FF000064FF000074FF000084FF0000B2D
:1007B00021F00701AC46ACE8C009ACE8C009ACE8E0
:1007C000C009ACE8C0098D46704710B50446AFF3C8
:1007D00000802046BDE81040FFF743BD002801D04F
:1007E00000F02AB87047000010B5012805D000219C
:1007F00003A000F027F8012010BD09A1F8E70000D0
:1008000053494752544D454D3A204F7574206F66F9
:100810002068656170206D656D6F72790000000061
:100820003A2048656170206D656D6F727920636F45
:10083000727275707465640001491820ABBEFEE7E2
:100840002600020070B505460C460A2000E06D1C2B
:1008500000F011F835B128780028F8D102E0641CC6
:1008600000F009F814B120780028F8D1BDE87040F4
:100870000A20AFF3008008B569468DF80000032018
:10088000ABBE08BD464910B54A6822F440324A6002
:100890004A6843681A434A6001684A6822F48072D1
:1008A0004A6001684A68036942EA03224A600168B3
:1008B0004A6822F040724A6001684A6883681A43B5
:1008C0004A6001688A6822F400628A6001688A6866
:1008D000C3681A438A60816A6FF07062D14201680E
:1008E0008A6822F070628A6001688A680CD0836A24
:1008F0001A438A6001688A6822F040528A6001685F
:100900008A68C36A1A4301E022F040528A60016893
:100910008A6822F002028A6001688A68037E42EADD
:1009200043028A6090F82010002901684A680FD0BD
:1009300042F400624A6001684A6822F460424A60F8
:1009400001684A68174C436A04EB43331A4301E0D9
:1009500022F400624A600168CA6A22F47002CA6224
:100960000168CA6A838B104C04EB03531A43CA62B2
:1009700001688A6822F400728A6001688A6890F8C7
:10098000303042EA43228A6001688A6822F4806239
:100990008A6001688A68406942EA8020886010BDE8
:1009A0000023014000E0FFFF0000F0FF2DE9F047C9
:1009B0005B4C0122002584F8242084F8255084F81B
:1009C000265084F82750A4F10C0684F8282030889B
:1009D000A4F106086081B8F80000A081A4F13800F5
:1009E000016A91ED040A0146BDEEC00A84ED050AD4
:1009F00094F829304968002B77D094F82A30002BDE
:100A000073D08146887A00274FF4167A032815D0D0
:100A1000A4F13803B1F906101B78514500DB83B30C
:100A200011F5167F00DC6BB33231642906D889F8E2
:100A300000504FF0FF2000BF01F014F8D9F8041067
:100A4000384A8B7A012B2BD0022B3BD0032B16D1AB
:100A5000B1F9040000EB8000A061B1F9020050453B
:100A60000DDB94ED040ADFED300AB8EEC00A30EE7B
:100A7000200ABDEEC00A84ED040A84F82950BDE8BE
:100A8000F08700E005E0322789F800206FF47F004E
:100A9000D2E76FF0310789F800206FF47F40CBE791
:100AA000A561B1883944B180B8F804303B44A8F856
:100AB0000430D9F8200090ED040ABDEEC00A82EDA2
:100AC000020ADCE7A561718839447180B8F8023008
:100AD0003B44A8F80230D9F8200090ED040ABDEE9E
:100AE000C00A82ED010ACAE7FFE7B1F90600143037
:100AF000282812D8B1F904006FF0130398420CDBD8
:100B000014280ADCB1F90200984206DB142804DC40
:100B1000887A032801D184F82920A561AFE7000075
:100B2000BC010020E0CC002000C0554410B5A82036
:100B300000F0C6FC00F008F805F0AAFC05F0D6FBB2
:100B4000BDE8104000F004B806F044BFFEE7000026
:100B500000B587B0182205496846FFF71BFD6846B7
:100B600006F0FEFC0249086007B000BD40C4000862
:100B7000A80300202DE9F041214F234C00262DED44
:100B8000028B9FED208A00BF57F826506879042811
:100B900014D8A87968B195ED000A206806F04AFDDE
:100BA000287907280DD2DFE800F0101316191C1F52
:100BB0002200B0EE480A206806F03CFD761C052EA7
:100BC000E2D3BDEC028BBDE8F0819FED100A10E08E
:100BD0009FED0F0A0DE09FED0F0A0AE09FED0E0A50
:100BE00007E09FED0E0A04E09FED0D0A01E09FED86
:100BF0000D0A2068BDEC028BBDE8F04106F04ABD4D
:100C000030CD002000000000A80300209D9DFA3A8E
:100C1000934ADF3A32E5C63A41C8BB3A052FA73AB4
:100C200009F2943AFAA9843A014801F0F0B90000B7
:100C300060070020014801F0EAB9000060070020C9
:100C4000014801F0E4B9000088070020014801F0E4
:100C5000DEB900008807002010B5027F00218AB0AD
:100C6000012302B3CDE90613D0F83510C1F34F329A
:100C700000924FF6FF7202EAC10101914FF607019F
:100C80000291D11F0391417F104C41F30001491C97
:100C900004910E21099101680D4AA1420AD11178EF
:100CA0004C1C147009E0CDE90631D0F8351049012B
:100CB0000191E8E751784C1C547005910893006845
:100CC000694601F093F80AB010BD000060070020EB
:100CD000F80300202DE9FC4780466B461F4A01F0CF
:100CE0000CF91E4E0024A6F140051D4F32E000BF56
:100CF00055F82400016841452BD1017F81B170680E
:100D000005F0E0FB00F0FF0955F82400D0F83500AD
:100D100005F0D8FBC0B281451BD155F8240004E092
:100D20003168D0F83520914213D1D0F83A1000291B
:100D30000DD0326980F8392055F8240069462D30ED
:100D4000FFF7E3FB55F82400D0F83A108847BDE8D8
:100D5000FC87641CB8788442CAD3F8E768D40020C2
:100D6000F80300202DE9F0412F4E0546B078A8B9D0
:100D70002E4801F06FFB02212C4800F0B7FF102134
:100D80002A4800F0B3FF2A4801F064FB02212848FA
:100D900000F0ACFF1021264800F0A8FFB178102920
:100DA00000D3FEE70020234F0DE000BF57F82020BE
:100DB000EC68D2F83530A34204D112682B689A420D
:100DC00000D1FEE7401C8842F0D34220FFF7D0FA62
:100DD00004464221FFF710FCA8686060287920775C
:100DE00029790020E9B10421E160206108206061D7
:100DF00028682060A868C4F81D00E868C4F83500B9
:100E00002869C4F83A006869C4F83E002046FFF734
:100E100023FFB07847F82040401CB0702046BDE862
:100E2000F081E060E1E70000F803002060070020A7
:100E30008807002028D4002030B504462DED028B11
:100E400083B0F0EE408A00F01DFBB0EE408A1A4DF0
:100E500011E000BF00F016FB30EE480AB4EEE80ADD
:100E6000F1EE10FA07DD15A16868CDE9000115A3C0
:100E700015A217A113E0206801F0B3F80028E9D00B
:100E800004F1210320681A1D211D00F041FF88B1E3
:100E90000AA16868CDE900010AA30BA215A10020F0
:100EA00006F0E4FD6868401C6860002003B0BDECFB
:100EB000028B30BD0120F9E7F80300201B5B306D89
:100EC00000000000570000001B5B313B33336D0016
:100ED00020202573257343414E20425553592073DA
:100EE000656E64696E672120636E743A25640D0A2D
:100EF0002573000020202573257343414E20425561
:100F00005359206275732120636E743A25640D0A6B
:100F100025730000002070470020704710B50022A4
:100F20000449054807F070FE0449034807F05FFED6
:100F3000002010BDA8230020A00F0020A81B002027
:100F400010B50C460146074807F051FE054807F06A
:100F500027FE0548416811B1208880B288470020EB
:100F600010BD0000A00F002060000020044810B554
:100F7000026812B1088880B29047002010BD0000BE
:100F800060000020284910B5486A284C0022D0EDA6
:100F9000040A01F1380090ED040AB8EEC01A30EEF0
:100FA000C11A11EE103AA34236DAB8EEC00A204C4C
:100FB00030EEC00A10EE103AA3422DD290ED050A91
:100FC0000B6AB8EEC01AD3ED040A30EEC11A11EE66
:100FD000103AB3F17C5F1FDAB8EEC00A30EEC00AF7
:100FE00010EE103AB3F13F4F16D290ED070A896A1E
:100FF000104BB8EEC01AD1ED040A30EEC11A11EE52
:10100000101A994208DAB8EEC00A0B4B30EEC00A4B
:1010100010EE101A994202D380F82A2010BD012147
:1010200080F82A1010BD0000840100203694D73DBE
:101030003694D7BDE4380E3EE4380EBE2DE9F047B5
:10104000DFF828810027A8F1070978E0484850F820
:10105000276006F11804B07ED6ED660A06F1200579
:10106000012801D1F1EE600A607840070ED52078A2
:1010700004280BD1207901283DD096ED040A00BF49
:1010800005F5807006F030F9F0EE400A60788007D0
:1010900016D5207810F0060F12D0A079800704D55D
:1010A000A86890ED000A70EE200A6079012826D029
:1010B00096ED020A05F1880006F016F9F0EE400AF6
:1010C000A079C00704D0E86890ED000A70EE200A0D
:1010D0006078C0070BD0B6F90C0000EE100A05F1DD
:1010E0001000B8EEC00A06F0FFF8F0EE400AE07813
:1010F000012808D009E0286890ED000AC0E7686878
:1011000090ED000AD6E7F1EE600A96F8A421BDEE54
:10111000E00A96F8A51102EB421410EE100A08EB53
:10112000440202EB4101030A81F8253081F82600D0
:1011300096F8A70110B90020A1F825007F1C99F8A6
:101140000000874282D3094E0024B61F4546305D19
:1011500038B104EB441005EB4000B7EE000AFFF78E
:101160006BFE641C062CF2D3BDE8F0871C02002045
:1011700000CD0020012180F8A7117047FEB505467B
:101180004FF4DC763046FFF7F3F804463146FFF7BC
:1011900055FA95F89B0084F8A601D5F89400A06153
:1011A000B5F89800A08395F89A00A07705F1100192
:1011B00004F1300006F0C2F905F13C0104F1A80089
:1011C00006F0BCF905F1680104F5907006F0B6F977
:1011D0002868206268686062E868E062A86805F1D3
:1011E0009C01A0620E46204605F078FE0E48C5E937
:1011F0002B043046FFF7B6FD0C49C4F8A001D1E935
:1012000000018DE81300684600F0D0F9C4F8A80189
:10121000012084F8A7010748054A017842F82140D7
:10122000491C01702046FEBDB117000834C40008F7
:1012300000CD0020150200200EB5D0F8A011094AFB
:101240000868904201D1012000E0022006A2D1F8F6
:101250001D108DE8070006A306A208A1002006F0D5
:1012600005FC0EBD600700201B5B306D0000000018
:10127000570000001B5B313B33336D00202025738A
:1012800025735B646A695F6D6F746F725D204D6F6B
:10129000746F72206C6F73742C2063616E206275A2
:1012A00073205B25645D202C206964205B25645DD0
:1012B0000D0A2573000000000176704780ED660A74
:1012C0007047002180F8A71170470000014801F025
:1012D000DFB90000800E0020014801F0D9B90000FC
:1012E0006C080020014801F0D3B90000CC0A0020AE
:1012F000014801F0CDB900002C0B0020014801F09D
:10130000C7B90000CC080020014801F0C1B90000B5
:101310000C0A0020014801F0BBB90000E00E0020DB
:10132000014801F0B5B900006C0A0020014801F045
:10133000AFB9000000070020014801F0A9B9000082
:10134000200E0020014801F0A3B90000400F00204A
:10135000014801F09DB90000C00D0020016818236C
:10136000CAB2103AB2FBF3F2054B6FF30901032A3C
:101370009B5CC36500D9091D816508467047000064
:101380003CC0000810B5014600208B698A6A4FF006
:10139000C07453B1B3F5005F15D072B1012A0CD0FF
:1013A000022A0AD0032A09D104E01AB1012A06D080
:1013B000022A03D1C96AC90100D5012010BDC96A3A
:1013C000A142FAD010BD002AF7D0012AF2D0022A99
:1013D000F3D0032AF3D010BD30B50468256825F496
:1013E00080252560046863608368402B036803D010
:1013F00099600068C26030BD9A600068C16030BD0D
:1014000038B5EFF314800C4C28B10021606909F065
:10141000C3FA00280FD1094841680091226991421E
:1014200002D2E168491CE160406820616069BDE862
:10143000384009F089BA38BD00040020001000E0EF
:1014400000B50E492DED028B81B04968009101680D
:10145000009A511A00EE101A0949F8EE400A91ED6F
:10146000000A0260B8EE400A80EE808AFFF7C8FFEB
:1014700001B0B0EE480ABDEC028B00BD001000E0E8
:101480000004002010B500F047F80B489FED0B1A40
:101490000268818802EB4203C3EBC212C08801EBF1
:1014A000C20100EE101A00EE900AB8EE400AF8EE03
:1014B000600A00EE810A10BD300400206F12833AEA
:1014C0001CB511490A6842F080720A600F4A002177
:1014D0005160136843F0010313600D4A0D4C5043F3
:1014E0004FF47A72B0FBF2F2C4E90002084AB0FB92
:1014F000F2F0C4E9020100916846019109F01CFA7A
:101500006061FFF77DFF1CBDFCED00E0001000E016
:1015100040420F00000400202DE9F84321484068B4
:101520000090FFF76DFF204F0024009EF8684FF0F9
:10153000FF312546E0FB0165C7E90E65D7F800805D
:101540002346424630462946FEF768FFA0FB083C8A
:10155000C7E9060101FB08C100FB0411F61A65EB9F
:101560000105C7E9086507F130080023C8F8000045
:10157000D7F8049030464A462946FEF74FFF80B21E
:10158000A8F8040000FB09F0301A65EB0405C7E970
:101590000A0529460023BA68FEF740FFA8F80600AE
:1015A000BDE8F883001000E00004002010B50446F8
:1015B0001020FEF7DDFE0021016041608160C16006
:1015C000A168C160218801B964210180616841601E
:1015D000618801B964210181054A21880181034B99
:1015E000117843F82100491C117010BD44CD002032
:1015F000AC030020018801817047000070B5002411
:10160000094E0A4D0CE000BF56F82400018911B1C3
:10161000491E018103E0416809B1C0688847641C24
:1016200028788442F0D370BD44CD0020AC03002064
:1016300030B52F4CADF5617D00206070B4222D498E
:101640006846FEF7A7FF012529958DF89650684654
:10165000FFF794FDE060022029908DF896506846CF
:10166000FFF78CFD2061032029908DF89650684685
:10167000FFF784FD6061042029908DF8965068463C
:10168000FFF77CFD1B49A061B422B4315AA8FEF7D4
:1016900081FF5AA8FFF772FD05462062B422164961
:1016A0002DA8FEF777FF10352DA82D95FFF766FDC5
:1016B0001149E061B422B43187A8FEF76BFF87A817
:1016C000FFF75CFD6062B4220C49B4A8FEF762FF2C
:1016D000B4A8FFF753FDA062094806F041F9606025
:1016E0000849094807F054F8A0600DF5617D30BD48
:1016F000840100205CC00008C4C100082CC300089D
:10170000380D0020ECCC00207C0D002070B505F0D9
:10171000F3FC254DA5F13804287A012811D000F0FA
:10172000BBF86068807A022802D0287A002807D1A6
:10173000606A418800EE101AB8EE400A80ED660A31
:1017400070BDE068FFF716FD2069FFF713FD6069C3
:10175000FFF710FDA069FFF70DFDE069FFF70AFD37
:10176000206AFFF707FD606AFFF704FDA06AFFF734
:1017700001FDFFF707FC95F8240000286068C07A97
:1017800004D0012804D106F013F809E0012802D0A2
:10179000032805D102E000F0B5F801E0FFF706F9F3
:1017A000BDE8704006F052BABC010020704700004E
:1017B00070B5D0F83E4000F12D05D4F8A801FFF730
:1017C00019FF04F5D670FFF73BFE84ED6C0A6088C4
:1017D00020802888DFED2B0A40BA00EE100A6080D6
:1017E0009FED2A1AB8EE400A20EE200ADFED260A05
:1017F00084ED010A94ED020A688840BA20EE200ABE
:1018000000B200EE900AF8EEE00A00EE810ADFED89
:10181000200A9FED201A84ED020AB4F90C0000EEB4
:10182000100AA888B8EEC00A40BA00B220EE200A1A
:1018300000EE900AF8EEE00A00EE810ABDEEC00A62
:1018400010EE100AA081A879A07360882188401A40
:10185000B0F5805F02DD6069401E04E010F5805F36
:10186000606901DA401C60614FF4B471484300EED6
:10187000100AD4ED010AB8EEC00A30EE200A84ED59
:10188000040A70BDACFF333D9899193E3433A34030
:10189000D0CCCC3D6666663F10B5134801220021CE
:1018A00000F8242F104C41708170C1700271817159
:1018B000383C4171E068FFF704FD2069FFF701FD46
:1018C0006069FFF7FEFCA069FFF7FBFCE069FFF72A
:1018D000F8FC206AFFF7F5FC606AFFF7F2FCA06AEB
:1018E000BDE81040FFF7EDBCBC010020082001F06E
:1018F0006FB8102001F06CB8202001F069B872B602
:10190000FEE7000070B54D4C00252DED028B84F8EC
:10191000255084F8245084F8295094F828009FED2D
:10192000488A0126E8B1214694F8272091F826003C
:1019300091ED040AEAB3E8B3FFF7A4FDD4ED000A81
:1019400030EE600AD4ED010AB4EEE00AF1EE10FACE
:1019500004DD04F8246F6670A5702671BDEC028B5F
:1019600070BD364837493838806A8068884202DC62
:101970003549884202D99FED350A5BE0FFF782FDC9
:10198000D4ED000A30EE600AD4ED010AB4EEE00AAC
:10199000F1EE10FAE2DD206A00280CDA4FF47A70DA
:1019A000206284ED018A00BFFFF76CFD84ED000A20
:1019B000D4E704E030E0256284F82860CEE7E0B1A7
:1019C000FFF760FDD4ED000A30EE600AD4ED010AA5
:1019D000B4EEE00AF1EE10FAC0DD84F8265084F887
:1019E000276084F828501A48206284ED018A0C345C
:1019F000FFF748FD04ED030AB0E7B8EEC00ADFEDDB
:101A0000150A30EE200ABDEEC00A84ED040A84F8FF
:101A100026609FED110A0DE0B8EEC00ADFED0F0A57
:101A200030EE200ABDEEC00A84ED040A9FED0C0AD8
:101A300084F8266084ED010AB6E70000BC010020AE
:101A40000080BB4400004842000048C20000FA4346
:101A500018FCFFFF00C0D54400409C4500C0554421
:101A600000401C450C4910B5020E0A70C0F3074334
:101A700013FB02F34B80C0F3072414FB02F48C80A9
:101A8000C0B210FB02F20548CA8001684A630168CF
:101A90008C630068C36310BDEE0300201C0C0020A3
:101AA00010B558B1084C491E0BD310F8013B5340F8
:101AB000DBB234F8133083EA1222F4E74FF6FF70FA
:101AC00010BD104610BD000058C5000810B5064CEA
:101AD00004E000BF10F8013B5340E25C491E89B2AC
:101AE000F8D2104610BD000058C4000878B5002494
:101AF000009490F83C20012A19D0012280F83C2063
:101B00000A6807230568092A13D9EE680A3A02EB26
:101B1000420293409E43EE600B788A680A3B03EBD7
:101B200043039A400368DD682A43DA6010E002202C
:101B300078BD2E6902EB420293409E432E610B78E2
:101B40008A6803EB43039A4003681D692A431A61BC
:101B50004A681F23072A13D205686E6B521E02EBD8
:101B6000820293409E436E630B790A885B1E92B299
:101B700003EB83039A4003685D6B2A435A6327E0B3
:101B800005680D2A12D22E6BD21F02EB82029340FF
:101B90009E432E630B790A88DB1F92B203EB83030B
:101BA0009A4003681D6B2A431A6311E0EE6A0D3AEE
:101BB00002EB820293409E43EE620B790A880D3B52
:101BC00092B203EB83039A400368DD6A2A43DA6228
:101BD000164B0568144A9D4206D10D68122D03D19B
:101BE000556845F48005556005689D4218D10B681D
:101BF000102B01D0112B13D1536843F40003536011
:101C0000096810290CD10A490A4A0968B1FBF2F1A6
:101C100001EB8101490000E0491E00910029FBD140
:101C200080F83C40002078BD0023014000200140A6
:101C30008800002040420F0070B504004FF00005FE
:101C400003D0206C002610B107E0012070BD2046B3
:101C500000F01CF8666484F83C60206CC00610D468
:101C6000206C20F4885040F0020020642046FEF7EB
:101C700009FE6664206C20F0020040F00100206440
:101C800000E0012584F83C60284670BD38B5054663
:101C900000681249884220D111480021026842F4AC
:101CA000807202600068104C00F4807000900D4853
:101CB000C4E900010015A160C4E90310400060619F
:101CC0008000C4E9060121622046616200F0B0FD97
:101CD00008B1FFF714FEAC63A56338BD00200140D6
:101CE00044380240706402400007002090F8202031
:101CF000012A07D0022A05D0416A41F480214162BD
:101D000001207047006842690A4342610020704721
:101D1000F0B590F820500468A468012D05D0022D7C
:101D200003D0416A41F480215DE014F0406F01D19D
:101D3000E50055D5C4F30164022C03D9416A41F48E
:101D4000000150E00125A5401D608D684FF4C0736F
:101D50009DB1CE6835434E6845EAC605066803EB7B
:101D60000417F5514FF4C275076805EB04150E69A9
:101D70007E51097D012905D009E00E88CD6845EA2C
:101D80004655EBE701684E5946F480764E5111797D
:101D9000D579567941EA056195792D0445EA0625FC
:101DA00029434FF4C676056806EB0416A95111784D
:101DB000D57841EA0561957852782D0445EA0222EA
:101DC00011434FF4C475026805EB041551510068C6
:101DD00003EB0411425842F0010242500020F0BDD2
:101DE000416A41F4001141620120F0BD10B590F844
:101DF0002020012A07D0022A05D0416A41F480211F
:101E00004162012010BD3B48D0F8002242F001029F
:101E1000C0F80022D0F8002222F47C52C0F8002240
:101E2000D0F800224B6A42EA0322C0F800220A7D61
:101E300002F01F0301229A40D0F81C329343C0F8ED
:101E40001C32CB69B3B9D0F80C329343C0F80C32D2
:101E50008C894B6864F31F434C6900EBC404C4F8DD
:101E600040320C890B6864F31F434C6900EBC404D7
:101E7000C4F84432CB69012B16D1D0F80C3213438D
:101E8000C0F80C320C884B6864F31F434C6900EBBC
:101E9000C404C4F840320C89CB6864F31F434C6916
:101EA00000EBC404C4F844328B69002BD0F8043230
:101EB0000ED01343C0F804320B69002BD0F8143253
:101EC00008D01343C0F81432096A012904D008E08D
:101ED0009343EFE79343F5E7D0F81C121143C0F8A2
:101EE0001C12D0F8001221F00101C0F800120020ED
:101EF00010BD000000640040704730B590F82040ED
:101F0000012C05D0022C03D0416A41F480215DE010
:101F10000468002955D02469A40754D04FF4D8741C
:101F2000056804EB01142D5915F00405956005684A
:101F30002D594ED0ED08556005682C5904F0020467
:101F4000D4604FF4DA74056804EB01142D5905F0E0
:101F50000F05156105682D59C5F3072595610568BD
:101F60002C59240C54614FF4DC72046802EB01120A
:101F7000A4581C700468A458240A5C700468A4580F
:101F8000240C9C700468A258120EDA704FF4DE72B2
:101F9000046802EB0112A4581C710468A458240AB6
:101FA0005C710468A458240C9C710468A258120E39
:101FB000DA71006881B1016941F0200101610020FE
:101FC00030BDE468A8E7416A41F400114162012094
:101FD00030BD6D0D1560AFE7C16841F02001C160F3
:101FE000EDE70246002092F82010012901D00229D5
:101FF0000CD111688A68520100D501208A6812014B
:1020000000D5401C8968C90000D5401C70472DE9E7
:10201000F05F0546006800244669D0F804908768A0
:10202000D0F80CB0D0F810A0D0F81880F10748D044
:10203000F90714D001218160B80703D5284600F0C4
:1020400036FA0CE0780702D54FF4006407E0380751
:1020500002D54FF4805402E0284600F027FAF80534
:1020600016D529684FF480708860B80503D52846D6
:1020700000F01FFA0CE0780502D544F4005407E0A4
:10208000380502D544F4804402E0284600F010FAF6
:10209000F80316D529684FF480308860B80303D55B
:1020A000284600F008FA0CE0780302D544F4004416
:1020B00007E0380302D544F4803402E0284600F0FB
:1020C000F9F9300707D55FEACB6004D529681020FD
:1020D00044F40074C86070074FF0080707D55FEA42
:1020E0000B7004D52868C760284600F0A9F9B0072E
:1020F00006D52868C068800702D0284600F0A1F9FC
:10210000700607D55FEACA6004D52968102044F438
:1021100080640861B00607D55FEA0A7004D52868B4
:102120000761284600F090F9F00606D52868006996
:10213000800702D0284600F088F9B00308D55FEA8E
:10214000C96005D5296810204860284600F080F94C
:10215000F00307D55FEA097004D528684760284670
:1021600000F0AAF9300446D55FEA497040D5F00581
:1021700004D55FEAC87001D044F00104B00504D56D
:102180005FEA887001D544F00204700504D55FEA67
:10219000487001D544F00404300529D518F0700FBB
:1021A00026D008F07000402815D006DC102809D091
:1021B00020280AD0302816D10AE050280ED06028F6
:1021C00011D10EE044F008040DE044F010040AE0E0
:1021D00044F0200407E044F0400404E044F08004AC
:1021E00001E044F480742868816921F07001816104
:1021F000296804204860002C05D0686A2043686282
:102200002846FFF779FEBDE8F09F70B5040003D0C3
:1022100094F8200010B104E0012070BD204600F0C9
:1022200081F82068016841F00101016000F0DAFCEA
:102230000546052604E000F0D5FC401B0A2811D80D
:1022400020684068C007F6D02068016821F00201CC
:10225000016000F0C7FC05460BE000F0C3FC401B2A
:102260000A2806D9606A40F40030606284F8206071
:10227000D2E7206840688007EFD4207E01282068DC
:1022800001683DD021F080010160607E0128206856
:10229000016838D021F040010160A07E012820684B
:1022A000016833D021F020010160E07E0128206820
:1022B00001682ED041F010010160207F01282068C4
:1022C000016829D021F008010160607F01282068A1
:1022D000016824D021F004010160D4E9020108431F
:1022E000D4E90412114308436168491E0843216878
:1022F000C86100206062012084F82000002070BDC9
:1023000041F08001C0E741F04001C5E741F0200104
:10231000CAE721F01001CFE741F00801D4E741F00E
:102320000401D9E7F0B587B0044614216846FEF7EA
:1023300085F93E4B3E48DFF8F0E01968D4F800C05C
:102340003B4A03250226092710300024491CF44586
:102350002AD11960012907D1016841F0007101609B
:10236000006800F000700590106840F008001060F0
:102370001068CDE9005600F00800CDE90470694608
:102380002C48CDE9024500F02FFB00220521142046
:1023900000F0F0FF142000F0DFFF002205211520DF
:1023A00000F0E8FF15203AE0DFF88CE0F44538D182
:1023B000D0F800C04CF0806CC0F800C0D0F800C06D
:1023C00001290CF0806CCDF814C0196007D10168A8
:1023D00041F000710160006800F000700590106825
:1023E00040F002001060106802AB00F0020005909F
:1023F0006020CDE9000683E8B00069460F4800F090
:10240000F3FA00220521402000F0B4FF402000F044
:10241000A3FF00220521412000F0ACFF412000F085
:102420009BFF07B0F0BD00000064004004000020E6
:1024300030380240000C02400068004000040240B6
:1024400070470021FEF746BC70470121FEF742BCF1
:102450007047000070B5044690F82000012804D0B1
:10246000606A40F40020606218E0022084F82000D6
:102470002068016821F00101016000F0B3FB05460E
:102480000EE000BF00F0AEFB401B0A2808D9606ACE
:1024900040F400306062052084F82000012070BD07
:1024A00020684068C007EDD1606270BD704770471A
:1024B0007047704770477047704710B5040002D0EE
:1024C000607910B106E0012010BD00202071204687
:1024D00000F004F801206071002010BD08B500680C
:1024E0000649884208D10648016841F480510160DC
:1024F000006800F48050009008BD000000300240E9
:102500003038024070B54379012B1CD0012646714A
:102510000223037105682B6802F0100440F6FE7276
:10252000A2409343D1E900210A43A2401A432A6002
:1025300001680A68C023A3409A430A60067100211B
:102540004171084670BD022070BD70B5040003D013
:102550002079002510B105E0012070BD657120468D
:1025600000F008F802202071256101202071002070
:1025700070BD000010B586B0044614216846FEF711
:102580005DF81149206888421CD11048002102687A
:1025900042F000520260006800F0005005900B48C5
:1025A0001038026842F001020260006800F0010089
:1025B0000590202000900320CDE9010169460448E0
:1025C00000F012FA06B010BD00740040403802401E
:1025D000000002402DE9F0410446876D00F002FB47
:1025E000064694F835000025022806D08020606554
:1025F00084F834500120BDE8F0812068016821F0A2
:10260000160101602068416921F080014161206C60
:1026100008B9A06C20B12068016821F008010160B0
:102620002068016821F0010101600CE000F0DAFA95
:10263000801B052807D920206065032084F8350019
:1026400084F83450D7E720680068C007EED194F8CA
:102650005C103F208840B860012084F8350084F881
:1026600034500020C7E790F83510022903D08021AC
:10267000416501207047052180F835100068016828
:1026800021F0010101600020704790F8350070478B
:102690002DE9F84304464FF00009CDF80090634857
:1026A0004FF41651A56D0068B0FBF1F72E6894F851
:1026B0005C10082000FA01F131420FD021680A684D
:1026C00052070BD50A6822F004020A6094F85C10E5
:1026D0008840A860606D40F00100606594F85C106F
:1026E0004FF0010808FA01F0304208D0216849692A
:1026F000090604D5A860606D40F00200606594F89A
:102700005C1004208840304208D02168096889079D
:1027100004D5A860606D40F00400606594F85C101A
:1027200010208840304218D021680968090714D564
:10273000A86020680168490304D50068000308D533
:10274000A16C07E00168C90503D4016821F0080104
:102750000160216C09B12046884794F85C10202064
:102760008840304231D021680968C9062DD5A8605B
:1027700094F8350005282068016806D0490347D53C
:10278000006800031DD4616C1CE021F0160101609B
:102790002068416921F080014161206C08B9A06C7A
:1027A00020B12068016821F00801016094F85C10F4
:1027B0003F208840A86084F8358084F83490216DEB
:1027C0001FE0E16B09B120468847606D00282BD0DF
:1027D000606DC00714D0052084F8350020680168BA
:1027E00021F0010101600098401C0090B84203D81C
:1027F00020680068C007F6D184F8358084F83490EA
:10280000E16C002910D001B02046BDE8F043084734
:102810000168C905D5D4016821F01001016084F870
:10282000358084F83490CCE7BDE8F8838800002038
:102830002DE9F041044600F0D5F906465CB10220CE
:1028400084F83500002584F834502068016821F0B0
:10285000010101600DE00120BDE8F08100F0C2F946
:10286000801B052805D920206065032084F83500E9
:10287000F2E720680068C007F0D12268116820489C
:102880000140D4E901031843D4E903363343184324
:1028900063691843A3691843E3691843236A18431B
:1028A0000843616A042903D1D4E90B13194308438F
:1028B000106020684069666A20F0070130460E43C8
:1028C000012704280CD1A06A0643E06A40B12046E3
:1028D000FEF758FD20B14020606584F83570BAE7F6
:1028E000206846612046FEF739FD94F85C203F21C0
:1028F00091408160656584F835700020ACE7000088
:102900003F8010F02DE9F0410446866D90F83400C8
:10291000002501280DD0012084F8340094F835708A
:102920000020012F07D084F8340002252846BDE896
:10293000F0810220FBE7022784F8357060652046AD
:10294000FEF74AFD94F85C103F208840B060206894
:10295000016841F016010160206C20B12068016817
:1029600041F0080101602068016841F00101016047
:10297000DCE7000070B5044600F034F90546601C41
:1029800002D004480078044400F02CF9401BA04217
:10299000FAD370BD7C000020034630B40B48002100
:1029A000094C02780BE000BF54F82100C5889D4215
:1029B00004D1856815B1AC4630BC6047491C9142D2
:1029C000F2D330BC7047000084D4002040040020C3
:1029D000044910B50A68024202D00860FFF7DCFF24
:1029E00010BD0000143C01402DE9F84FDFF8BCA1F8
:1029F0000022012503264FF00F090AF1040BAAF16A
:102A0000040E00BF0B6805FA02F42340A34270D104
:102A10000F7907F00307012F01D0022F16D1876825
:102A20004FEA420806FA08FC27EA0C07D1F80CC066
:102A30000CFA08FC4CEA070CC0F808C04768A7432A
:102A40000C79C4F3001494403C4344600C79E44393
:102A5000A4070AD0C4684FEA420C06FA0CF7BC433C
:102A60008F6807FA0CF72743C7600C7904F003045A
:102A7000022C12D1D40800EB840CDCF8204057075C
:102A8000FF0E09FA07F824EA0804D1F8108008FAC2
:102A900007F848EA0408CCF8208004684FEA420CA2
:102AA00006FA0CF7BC430F7907F0030707FA0CF797
:102AB000274307604C6814F4403F70D03C4C2768B3
:102AC00047F480472760246822F0030704F4804419
:102AD0000094384C07EB040CDCF8084897074FEAE1
:102AE000177809FA08F7BC43334FB84202D10027E0
:102AF00024E054E0314FB84201D101271EE0304FAD
:102B0000B84201D1022719E02E4FB84201D1032764
:102B100014E02D4FB84201D104270FE02B4FB842EB
:102B200001D105270AE02A4FB84201D1062705E066
:102B3000284FB84201D1072700E0082707FA08F715
:102B40002743CCF80878DAF800405746D1F804C09B
:102B50009C435FEACC2C00D51C433C60DBF8004072
:102B60005F46D1F804C09C435FEA8C2C00D51C431F
:102B70003C60DEF800407746D1F804C09C435FEA31
:102B80008C3C00D51C433C60084F083F3C68D1F8A2
:102B900004C09C435FEACC3C00D51C433C60521C03
:102BA000102AFFF42FAFBDE8F88F0000083C014069
:102BB000443802400030014000000240000402405E
:102BC00000080240000C02400010024000140240C5
:102BD00000180240001C02400AB1816170470904DC
:102BE000FBE7000001488068704700007C0000207F
:102BF000704770472DE9F041016804464A694E6804
:102C000090F83E000025D743FA0506D4F243D205DA
:102C100003D46FF4807201254A61B90508D4F143E9
:102C2000C90505D422686FF4007145F002055161B1
:102C3000790525D4F143C90522D4638D94F83D105C
:102C4000226B202808D13BB9212910D029290ED088
:102C5000282901D1212A0AD022686FF480615161AC
:102C600045F00405102806D0402804D008E020468E
:102C700003F04CFA04E02068016841F4007101603F
:102C8000380508D4F043C00505D421686FF400600E
:102C900045F008054861002D07D0206C28432064CA
:102CA0002046BDE8F04102F0C3BEBDE8F0812DE949
:102CB000F047026800215368C66A90F83E4090F8D9
:102CC0003D50102C12D0402C10D0046C002C7DD024
:102CD0005469E443A6077AD4DE43B60577D4036C7F
:102CE00003B19169BDE8F04703F0ECB99769516908
:102CF0004FF42A0CC9435FEAC1784FF02A4904D047
:102D000066452AD04E4528D010E0DE43B6050DD4E6
:102D1000C16A614501D1012103E0C16A494501D180
:102D20000821C162BDE8F04703F036B90E0716D49A
:102D3000DE43B60513D4416CC9B21161416B09B1D0
:102D4000C96B29B9816B002907D0C96B002904D050
:102D50000068416841F400614160BDE8F0878E077A
:102D600006D4DE43B60503D4BDE8F04703F088B8C7
:102D7000FE43526876074FEA02521DD4002AECDB6C
:102D80000A0608D4DA43520505D4490705D5BDE83B
:102D9000F04703F019B84907DFD4D9438905DCD4DB
:102DA000212D05D0402CD8D1BDE8F04703F03AB929
:102DB000BDE8F04702F0C6BF002ACEDB4A060BD4BE
:102DC000DA43520508D4490708D501E00DE00EE0CA
:102DD000BDE8F04702F042BF4907BED4D943890598
:102DE000BBD4BDE8F04702F0CFBE916970E7E106C1
:102DF00006D4D943890503D4BDE8F04703F0C8B928
:102E00002821212D27D0292D25D0650655D4DD4335
:102E10006D0552D4640752D590F83D30448D002C96
:102E20009BD01269446A2270426A521C4262428DEF
:102E3000521E4285428D002A8FD12A2B8DD10268E5
:102E4000536823F4806353602222026380F83D10AC
:102E500000F0F6F981E7250623D4DD436D0520D483
:102E6000640720D590F83D30448D002CF2D0446AA0
:102E700024781461426A521C4262428D521E42857D
:102E8000428D002AE6D1292BE4D10268536823F44D
:102E9000806353602122026380F83D1000F0D1F975
:102EA0005BE76107D6D4D9438905D3D4418D002986
:102EB000D0D0416A097811610AE06107CAD4D943C8
:102EC0008905C7D4418D0029C4D01169426A1170A7
:102ED000416A491C4162418D491E41853DE7704769
:102EE00070B5040025D094F83D00002520B984F881
:102EF0003C50204600F0DCF8242084F83D00206897
:102F0000016821F0010101602068016841F400417D
:102F100001602068016821F40041016001F0F4F8CB
:102F20004D4A6168914201D84C4900E04C498842C1
:102F300001D2012070BD4B492368B0FBF1F15E68FE
:102F400026F03F060E435E606368934206D94FF455
:102F5000967359434FF47A73B1FBF3F12368491C1C
:102F60001E6A26F03F06314319626168914210D80B
:102F70004900401EB0FBF1F2521CC2F30B02042ABE
:102F800001D2042022E0B0FBF1F0401CC0F30B00A2
:102F90001CE0A268F2B301EBC10303EB0116431E70
:102FA000B3FBF6F35B1C43F480431B0549D092B39B
:102FB00001EBC10202EB0111401EB0FBF1F0401C1D
:102FC000C0F30B0040F4804040F400402168CA691F
:102FD0004CF6FF739A431043C861D4E907100143CC
:102FE0002068026822F0C00211430160D4E90301A5
:102FF00001432068826848F2FF339A43114381609D
:10300000D4E9050108432168CA6822F0FF02104391
:10301000C86001E00EE016E02068016841F001019F
:1030200001602564202084F83D00256384F83E502B
:10303000002070BD01EB4106431EB3FBF6F35B1CA1
:10304000B3E70120C2E701EB4101401EB0FBF1F004
:10305000401CC0F30B00B7E7A086010080841E006F
:1030600000093D0040420F0070470000F0B40D4AD7
:1030700003460021101F047810E000BF52F8210021
:1030800005689D4208D15D6C0679B54204D101699D
:10309000002905D0F0BC0847491CC9B2A142EDD3B4
:1030A000F0BC7047480400207047FFF7DFBF70474F
:1030B0002DE9F04387B0064614216846FDF7BEFAB5
:1030C000574ADFF8609131685648032512270024DB
:1030D0004FF0040809F1100991425AD1016841F0FA
:1030E000200101600068CDE9005700F02000CDE923
:1030F000048069464C48CDE90245FFF775FCD9F8D4
:10310000001041F48001C9F80010D9F80000484DC2
:1031100000F480000590454828604FF06067C5E9DD
:1031200001744FF48068C5E903486C61AC61EC61DF
:103130002C6228466C62FFF77BFB08B1FEF7DFFBD1
:10314000B563AE633A4D394860357830E5E802073B
:103150004020A5E81101364845F814496030AC61BB
:10316000EC612C626C62FFF763FB08B1FEF7C7FBF2
:103170007563002205212120AE6300F0FBF82120B9
:1031800000F0EAF800220521222000F0F3F82220C6
:1031900040E0284A91423FD1016841F004010160BA
:1031A000016801F004010591016841F0010101602D
:1031B0000068694600F0010005905015CDE9000750
:1031C00002AA1D4882E83001FFF70EFC4FF4807020
:1031D000CDE9000702AA694682E830011748FFF7E7
:1031E00003FCD9F8001041F40001C9F80010D9F827
:1031F0000000002200F4000005900521482000F0A6
:10320000B9F8482000F0A8F800220521492000F074
:10321000B1F8492000F0A0F807B0BDE8F083000045
:103220000058004030380240001402404060024024
:103230006C080020005C00400008024000000240D2
:103240007047704702488168027811448160704776
:103250007C0000200B4810B5016841F4007101604A
:10326000016841F480610160016841F4807101608E
:10327000032000F09FF80F2000F006F800F050F84F
:10328000002010BD003C024030B505461F4887B005
:103290000024016841F480710160006806A900F40F
:1032A0008070009001A800F009FF0498A8B100F018
:1032B0002BFF40001649174AB0FBF1F11648491E92
:1032C000026040F2E732C0E90324C0E901148461DE
:1032D00001F014FC040003D015E000F015FFE9E74D
:1032E0000D4801F08DFC04000DD12D2000F034F8C4
:1032F000102D07D2002229462D2000F03BF8074868
:10330000056000E0012407B0204630BD403802408F
:1033100040420F0000200040A82B00208000002029
:103320000C4882B0016841F480410160006800F4FB
:10333000804000900748001F016841F08051016003
:103340000068002200F0805000900F21901E02B013
:1033500000F010B844380240002809DB00F01F02DA
:10336000012191404009800000F1E020C0F80011E7
:1033700070470000F0B40E4B1B680C46C3F30223E9
:10338000C3F10705042D00D90425191D072901D211
:10339000002300E0DB1E012606FA05F1491E21404C
:1033A00099409E40761E16403143F0BC07F0AFB9FD
:1033B0000CED00E0064900F0070208684FF6FF0335
:1033C000184040EA0220034A10430860704700009A
:1033D0000CED00E00000FA05704700684162002033
:1033E0007047F0B50368586A39B19C6A4FF4827629
:1033F00000EB144400204D1E0AE040EA02409862AF
:103400000FE006EB8007DF59401C04EB1744C0B205
:10341000A842F6D344EA02404FF4807202EB8101E5
:1034200058500020F0BDD0F8080505F0C3BE01EBF0
:10343000C10200EB8202D0F80805D26C05F018BE7C
:1034400001EBC10200EB8202D0F80805D2F88C2211
:1034500005F069BED0F8080505F0AEBE0A0601F019
:103460000F0101EBC10100EB810101D53C3101E00D
:1034700001F51F71006806F0E3BD70B504460B0648
:1034800001F00F0000EBC00104EB81014FF00102DD
:103490004FF0000503D581F83D203C3103E081F871
:1034A0007D5201F51F71087094F8BC04012808D002
:1034B00084F8BC24206806F07DFA84F8BC5400200F
:1034C00070BD022070BD70B5044601F00F00626847
:1034D000904201D9012070BD0B0601F00F0101EBF4
:1034E000C10104EB81014FF001024FF0000503D54B
:1034F00081F83D203C3103E081F87D5201F51F71D8
:103500008D70087094F8BC04012808D084F8BC249D
:10351000206806F04BFC84F8BC54002070BD0220EB
:1035200070BD01F00F0101EBC10100EB8100D0F88B
:103530009C0270472DE9F04104460F0601F00F0090
:1035400000EBC00104EB81014FF001064FF00005D4
:1035500003D581F83D603C3103E081F87D5201F5EF
:103560001F710870CA600B714A7802B10881022B82
:1035700000D14D7194F8BC04012809D084F8BC64D2
:10358000206806F06FF9284684F8BC54BDE8F08145
:103590000220FBE770B50C4601F00F0505EBC501F5
:1035A00000EB8101C1F89432C1F88C220023C1F8EC
:1035B0009C3281F87D3281F87C52036901F51F71DC
:1035C000012B00D14A612207027C006803D006F07B
:1035D00045FC002070BD06F02FFBFAE770B50446ED
:1035E0000D4601F00F006168884201D9012070BDCD
:1035F00029064FF000064FF0010207D500EBC0018D
:1036000004EB810181F83D203C3107E005EBC50169
:1036100004EB810181F87D6201F51F718A700870E9
:1036200094F8BC04012807D084F8BC24206806F074
:10363000E9FB280702D007E0022070BD217C04F2DC
:10364000C442206806F086FB84F8BC64002070BD8C
:1036500070B50C4601F00F0505EBC50100EB8101CB
:103660004B65CA640023CB65012381F83D3001F826
:103670003C5F0369012B00D14A612207027C00688C
:1036800003D006F0EBFB002070BD06F0D5FAFAE798
:103690002DE9FC5F05680446284606F072FD002807
:1036A0007DD1206806F099FD002878D0D5F808086B
:1036B000C0F30D20C4F8FC04206806F08EFD8007DE
:1036C00004D52068416901F002014161206806F0DB
:1036D00084FDC10604F2C440009034D5206881699D
:1036E00021F0100181612F6A07F00F0000EBC0008C
:1036F00004EB8006C7F3434006F51F76022802D08C
:10370000062811D01AE047F6F070074216D0C7F32A
:103710000A1217462846316906F063FD30693844BD
:103720003061306A384408E008222846009906F0E3
:1037300058FD306AC7F30A11084430622068816975
:1037400041F010018161206806F047FD00034FF051
:10375000080B4FF0000A4FF001097CD500262068C5
:1037600006F01AFD074674E0F80770D0F1B2206841
:1037700006F02BFD8046C00707D005EB4611C1F8C7
:10378000089B3146204603F0F7FC5FEA087024D519
:1037900005EB4611C1F808BB2068016C00E025E28A
:1037A00000EB46100191D0F8082BFC4B994205D94B
:1037B000110403D54FF40041C0F8081B204600F067
:1037C00005FBF6490198884207D92069012804D1F0
:1037D00020680121009A06F0BDFA5FEAC86004D5AE
:1037E00005EB46111020C1F8080B5FEA88701DD563
:1037F0006869000605D5D5F8040840F48061C5F86D
:10380000041806EBC60004EB800090F87F1200F568
:103810001F70012905D180F803A0F1B2204600F005
:10382000EBF905EB46110220C1F8080B5FEA88604E
:1038300004D505EB46102021C0F8081B5FEA88403C
:1038400005D505EB46104FF40051C0F8081B7F0862
:10385000761C002F88D1206806F0BFFC40036FD58E
:10386000206806F092FC0746002667E0F80763D060
:10387000F1B2206806F097FC8046C00723D006F01E
:103880000F0209FA02F0D5F834288243C5F834282B
:1038900005EB4610C0F80899206901280FD106EB06
:1038A000C60004EB8000D0E912211144C16436B98E
:1038B000606D20B920680121009A06F04BFAF1B240
:1038C0002046FFF7B4FD5FEA087003D505EB46110B
:1038D000C1F808B95FEAC86004D505EB46111020AD
:1038E000C1F808095FEA486004D505EB461040219D
:1038F000C0F808195FEA887017D53146284606F0E7
:1039000013FC06EBC60004EB800090F83F103C303F
:10391000012905D180F803A0F1B2204600F068F932
:1039200005EB46110220C1F808095FEA086003D5DB
:103930003146204603F086FC7F08761C002F95D187
:10394000206806F04AFC002811DAD5F8040820F0B7
:103950000101C5F8041894F8F40401282BD020467E
:1039600000F018FA2068416901F0004141612068C7
:1039700006F033FC00050BD5D5F80808C00702D0C7
:10398000204600F04BFA2068416901F40061416172
:10399000206806F022FCC00466D5D5F8040820F0A3
:1039A0000100C5F804081021206806F0BDFB0021C5
:1039B0004FF67F321FE084F8F4A400212046FFF781
:1039C0000BFDCFE705EB4110C0F80829D0F800390E
:1039D00023F40013C0F80039C0F8082BD0F8003BDE
:1039E00023F40013C0F8003BD0F8003B43F0006321
:1039F000C0F8003B491C60688842E3D8D5F81C0831
:103A000040F00111C5F81C18206B002828460DD085
:103A1000D0F8840840F00B01C5F88418D5F84408A4
:103A200040F00B012846C5F844180DE0D0F8140802
:103A300042F22B010843C5F81408D5F8100840F0ED
:103A40000B012846C5F81018D0F8000820F4FE61D4
:103A5000C5F80018217C2068009A06F07BF92068E0
:103A6000416901F480514161206806F0B6FB800491
:103A700015D5206805F036FF206806F075FBE0607C
:103A800000F03CFB0146227B206806F009FC204642
:103A900000F06AF92068416901F400514161206831
:103AA00006F09BFB000707D5204600F077F9206859
:103AB000416901F008014161206806F08EFB0006B3
:103AC00016D5A86920F08000A86101260DE000BF8E
:103AD00006EBC60004EB800090F87F02012803D1BA
:103AE000F1B22046FFF7BAFC761C6068B042EFD80E
:103AF000206806F072FBC00221D501264F4616E071
:103B000005EB4610D0F8001906EBC60004EB800068
:103B100090F84020012A09D1002907DA80F83F7087
:103B2000F0B240F080012046FFF798FC761C6068F8
:103B3000B042E5D82068416901F4801141612068F4
:103B400006F04BFB800234D501204B4629E000BF34
:103B500005EB4011D1F8001B00EBC00204EB82061C
:103B600096F88022012A1BD1002919DA94F8FC2446
:103B700001F4803102F00102914211D186F87F32C6
:103B8000A96941F08002AA616969090608D4D5F8DB
:103B9000040840F40070C5F8040805E00A30544FEA
:103BA000401C61688142D3D82068416901F400114A
:103BB0004161206806F011FB400007D52046FFF761
:103BC00032FC2068416901F080414161206806F0C3
:103BD00004FB40070AD520684568680702D52046DF
:103BE000FFF738FC2068416829434160BDE8FC9F2D
:103BF000D0F8080505F034BBD0F8080505F044BB43
:103C00002DE9F0418AB0040005D094F8BD0426687F
:103C1000002520B108E001200AB0BDE8F08184F859
:103C2000BC54204600F05EF8032084F8BD04F06B1D
:103C3000C00500D42561206805F0F8FF04F11001EB
:103C4000282288466846FCF7A5FC94E80F0005F09A
:103C500057FE0226C8BB0021206806F0E1FA0020CA
:103C600001270EE000EBC00104EB810181F83D70FB
:103C700001F83C0F08810D71CD600D61401CC0B290
:103C80008D6161688142EDD8002011E000EBC00138
:103C900004EB810181F87D5281F87C0281F8805229
:103CA000C1F88852C1F88C52401CC0B2C1F894527D
:103CB00061688142EAD8282241466846FCF76AFCDE
:103CC00094E80F0005F0F8FE10B184F8BD64A2E797
:103CD00084F8385084F8BD74206805F0DFFE0020B9
:103CE0009AE7000010B586B0044614216846FCF738
:103CF000A5FC2068B0F1A04F2FD11948002102681F
:103D000042F001020260006800F0010005904FF4EB
:103D1000C05000900220CDE90101032003900A2049
:103D2000049069460F48FEF75FFE0D48001D0168CC
:103D300041F0800101600A481430016841F480417B
:103D400001600068002200F48040059005214320B6
:103D5000FFF710FB4320FFF7FFFA06B010BD00008D
:103D6000303802400000024070B50446C0680125AA
:103D700070B1022801D0FDF7C2FD2946D4F808052C
:103D800005F0F0FAD4F80805BDE8704005F0A5BAD2
:103D90000025F2E7D0F8080505F0CDBAD0F80805FF
:103DA00005F0D3BA10B5044690F8BC0401280BD036
:103DB000012084F8BC0484F83810206806F05EFA0C
:103DC000002084F8BC0410BD022010BDD0F80825E6
:103DD00000F2C441104605F0D1BA10B5044600689F
:103DE00094F8BC14012906D0012184F8BC14A16AFE
:103DF000012902D008E0022010BDA169012903D0E9
:103E0000816B41F480318163206806F068F9206895
:103E100005F036FE002084F8BC0410BD10B5044641
:103E2000D0F8080505F0ECFA2068D0F8001E41F043
:103E30000101C0F8001E206A002804D00248016871
:103E400041F00601016010BD10ED00E02DE9F843DE
:103E5000054600684FF00109C1074FF0000601D187
:103E6000400727D5DFF80C81C8F86860FEF7BAFE76
:103E70000746414C05E000BFFEF7B4FEC01B022818
:103E800057D820680001F7D468688101287A41EA90
:103E90000070394984310860C8F86890FEF7A2FEC6
:103EA000074604E0FEF79EFEC01B022841D82068AA
:103EB0000001F7D52878800752D52F484030016897
:103EC00041F08051016000682C4C00F0805000905F
:103ED000206840F480702060FEF784FE074604E00E
:103EE000FEF780FEC01B022823D82068C005F7D546
:103EF000214C7034206810F4407020D0A98901F45E
:103F0000407181421BD020681D4920F44070C1F8E7
:103F100000900E6020602068C00710D0FEF762FE9F
:103F2000064641F2883707E0FEF75CFE801BB84288
:103F300002D90320BDE8F88320688007F4D5E9683A
:103F40000D48C1F301220830032A0BD0016821F487
:103F5000F81101602068A989C1F30B0108432060B2
:103F60000020E7E70268074B22F4F81219400A43E1
:103F70000260EFE700004742003802400070004056
:103F8000400E4742FFFCFF0F2DE9F0470E460500AB
:103F900065D0DFF81481D8F80000F7B200F0070010
:103FA000B04207D288F80070D8F8000000F007008F
:103FB000B04254D128683D4C810712D5400703D543
:103FC000206840F4E05020602878000703D520687E
:103FD00040F4604020602068A96820F0F0000843A9
:103FE00020602878C0072DD030496868083901283A
:103FF00012D0022813D0032811D00968890700299C
:104000002DDA216821F0030101432160FEF7EAFD6A
:10401000814641F2883A0EE009688903EFE70968B2
:104020008901ECE7FEF7DEFDA0EB0901514502D95D
:104030000320BDE8F0872068696800F00C00B0EB51
:10404000810FEFD1D8F80010404601F00701B142CE
:1040500007D90770006800F00700B04201D00120C6
:10406000E7E72878400705D52068E96820F4E050A4
:10407000084320602878000706D52068296920F4C5
:10408000604040EAC100206000F05EF82168084A04
:10409000C1F30311515CC840064908600648006836
:1040A000FFF7F2F80020C4E7003C02400838024065
:1040B00044C0000888000020800000200F22026019
:1040C0000C4A136803F003034360136803F0F00322
:1040D0008360136803F4E053C36012684FF4E05345
:1040E00003EAD20202610448006800F00700086099
:1040F0007047000008380240003C02400148006858
:1041000070470000880000200448054900680968DD
:10411000044AC1F38221515CC840704788000020E6
:104120000838024054C0000804480549006809687E
:10413000044AC1F34231515CC840704788000020F6
:104140000838024054C00008154810B5006810F047
:104150000C02144813D01449042A0FD0082A0ED197
:104160000F4C241F2268236802F03F025B0207D530
:104170002068C0F38810A0FB010106E0084610BDCE
:104180002168C1F38811A1FB00010023FCF746F967
:104190002168C1F30141491C4900B0FBF1F010BD99
:1041A000083802400024F400001BB7002DE9F84F46
:1041B00004006ED02078DFF84C93C007A9F1040505
:1041C0004AD009F104000168C1F38101012908D036
:1041D0000068C0F3810002280AD1D9F8000040022B
:1041E00006D52868800337D560680028E1D033E021
:1041F0006068B0F5803F10D0B0F5A02F286810D0CF
:1042000020F480302860286820F4802028606068CE
:10421000A8B1FEF7E7FC06460DE0286840F48030C0
:10422000F4E740F480202860F7E700BFFEF7DAFCEF
:10423000801B642873D828688003F7D50CE0FEF74C
:10424000D1FC064605E000BFFEF7CCFC801B6428CD
:10425000F0D828688003F7D42078DFF8AC82800794
:104260004FF0000A3ED5A748001D016811F00C0F61
:1042700008D00068C0F3810002280BD1D9F80000F3
:10428000400207D42868800716D5E068012800D1CD
:1042900012E033E1E068B8B10120C8F80000FEF791
:1042A000A1FC064605E000BFFEF79CFC801B02282F
:1042B000C0D828688007F7D52868216920F0F80061
:1042C00040EAC10028600DE0C8F800A0FEF78AFCB3
:1042D000064604E0FEF786FC801B02281FD82868EB
:1042E0008007F7D42078000722D5864F8748616978
:1042F000703771B101210160FEF774FC064604E0DD
:10430000FEF770FC801B022809D838688007F7D5B3
:104310000EE0C0F800A0FEF765FC064605E082E06E
:10432000FEF760FC801B02287DD838688007F7D430
:104330002078400768D5DFF8CCB100270BF13C0BA3
:10434000DBF80000C0000BD4DBF8001041F0805116
:10435000CBF80010DBF80000012700F0805000903F
:104360006B4E3068C00510D4306840F48070306007
:10437000FEF738FC009005E0FEF734FC0099401A87
:10438000022850D83068C005F6D55E4EA0686C365D
:1043900001280FD00528306810D020F001003060CF
:1043A000306820F004003060A068B8B1FEF71AFC55
:1043B00000900FE0306840F00100F4E740F00400A6
:1043C0003060F7E7FEF70EFC0099411A41F28830A1
:1043D000814266D830688007F4D50EE0FEF702FC13
:1043E000009007E0FEF7FEFB0099411A41F2883089
:1043F000814256D830688007F4D42FB1DBF8001022
:1044000021F08051CBF80010A069C8B33D49091DC7
:104410000968C1F3810102294AD00228504607D019
:10442000C8F8600000E03CE0FEF7DCFB04463BE03F
:104430004746C8F86000FEF7D5FB064605E000BF1A
:10444000FEF7D0FB801B02282BD828688001F7D408
:10445000D4E907010843A16A2E4A490802EB014149
:10446000626A41EA8211084394F82C1040EA016123
:10447000C9F8001001203866FEF7B4FB044606E0D8
:104480003EE000BFFEF7AEFB001B022809D82868FB
:104490008001F7D534E000BFFEF7A4FB001B022823
:1044A00002D90320BDE8F88F28688001F4D427E002
:1044B0000128F7D0D9F80000E26900F480019142A8
:1044C0001CD1226A00F03F01914217D147F6C0711A
:1044D000626A0140B1EB821F10D1A26A4FF0FF3334
:1044E00000F4403103EB5202B1EB024F06D194F8D5
:1044F0002C1000F07060B0EB016F01D00120D1E70B
:104500000020CFE70438024000004742800E4742B7
:10451000007000400000FFFF70B5040003D0607918
:10452000002510B105E0012070BD2571204600F086
:104530000DF8022060712068016841F004010160FB
:1045400001206071A560002070BD000008B5006802
:104550000649884208D10648016841F040010160DF
:10456000006800F04000009008BD00000008065000
:104570003438024010B5040002D0607F10B106E06C
:10458000012010BD00202077204600F039F80220DD
:1045900060772168CA20486221685320486220461B
:1045A00003F0CCF830BB20688168144A1140816068
:1045B0002168886862681043D4E904231A431043D1
:1045C00088602168E068086120680169228941EA01
:1045D00002410161204603F0D5F858B921680A6C00
:1045E00022F480220A6421680A6CA3691A430A64CF
:1045F000012161772268FF21516210BDBFFF8FFF4B
:104600001FB50021009101910291039100680849B2
:1046100088420CD102200090064803906846FFF7BC
:1046200015FC08B1FDF76BF90349012008601FBDB7
:104630000028004000031E003C0E474270B50446AF
:104640000068C16821F0A001C160FEF7CBFA054601
:104650004FF47A7607E000BFFEF7C4FA401BB04281
:1046600001D9032070BD2068C0688006F4D5002001
:1046700070BD704738B5016804464A688868C04311
:10468000430606D5C30704D1D3435B0601D4216C8E
:1046900005E0830708D4D3431B0605D4616C01B041
:1046A0002046BDE830400847830603D5430601D5C0
:1046B000C30551D4D3439B064ED443060AD494F881
:1046C0005130032B49D0636D43F004036365CB681D
:1046D0008B680093830609D4636D43F0010363651F
:1046E0008B6800930B6823F040030B60C00506D471
:1046F000606D40F008006065206880680090606D23
:10470000002829D02068416821F0E00141600120A3
:1047100084F85100900701D4D00722D02068416866
:1047200021F003014160114DE06C40B10565E06C82
:10473000FDF799FF18B1606D40F040006065A06C16
:10474000002809D00565A06CFDF78DFF002803D077
:10475000606D40F04000606538BDC86888680090B2
:1047600038BD2046FFF785FF38BD0000317C0008CA
:1047700070B5040009D0606A002540B1256165610B
:10478000A56294F8510040B10CE0012070BD606852
:10479000B0F5827FF4D0E561F2E784F8505020460E
:1047A00000F044F8022084F851002068016821F0EC
:1047B00040010160A088218900F4827001F4044165
:1047C0000843A18901F400610843217C01F0020142
:1047D0000843217D01F001010843218B01F40071A0
:1047E0000843217F01F03801084394F8201001F0BC
:1047F00080010843218D01F40051084321680860BD
:10480000A069042101EA104094F8241001F010017D
:104810000843216848602068C16921F40061C161D2
:104820006565012084F85100002070BD2DE9F04F2E
:1048300087B0044614216846FBF700FFDFF8B0C1DB
:1048400023686C49022605206B4A002503274FF494
:10485000806A4FF0040B634569D1664B1433D3F87B
:1048600000C04CF4805CC3F800C01B6803F48053A4
:1048700005930B6843F002030B600B6803F002031F
:1048800005930B6843F001030B6009684FF00109C1
:1048900001F00101059118218DE842028046CDE921
:1048A000037869461046FEF79FF880208DE84102A4
:1048B000CDE9037869465148FEF796F8514E5048C5
:1048C0004FF0C0693060C6E90195C6E9035A7561C9
:1048D000B561F561C6E9085BC6E90A75D0463046A0
:1048E0003563FDF7A5FF08B1FDF709F8E664B46389
:1048F000444E434860364830E6E802094020A6E8C6
:104900002101404846F814596030B561F5613562BF
:104910007562FDF78DFF08B1FCF7F1FFA664002278
:1049200005212320B463FEF725FD23205BE0DFF89B
:10493000D8C0634559D12F4B1033D3F800C04CF485
:10494000804CC3F800C01B6803F4804305930B68D8
:1049500043F002030B600968029501F00201059122
:104960004FF46041CDE90016CDE903706946104669
:10497000FEF73AF8234E2548C036D046C6E9000572
:10498000B560C6E9035A7561B561F561C6E9085BB2
:10499000C6E90A75D94630463563FDF749FF08B1C7
:1049A000FCF7ADFFE664B4631848194E1830E6E82A
:1049B00002054020A6E82101154846F81459B561C2
:1049C000F561C6E90859C6E90A753563FDF730FF98
:1049D00008B1FCF794FFA664002205212420B463EB
:1049E000FEF7C8FC2420FEF7B7FC07B0BDE8F08F47
:1049F0000030014030380240000402400000024014
:104A0000106402400C0A0020003800405860024048
:104A10002C0B00207047704710B590F83C20012AFD
:104A200022D0012280F83C20CA688C6822F44072AF
:104A300022434C6822F4806222430C6822F4006214
:104A400022430C6922F4805222434C6922F4005222
:104A50002243C969002322F480420A4301684A6460
:104A600080F83C30002010BD022010BD70B590F8D9
:104A70003C20012A32D0012480F83C40022280F8F8
:104A80003D2003685A689D6822F070060A68324328
:104A90005A60134B02689A4214D0B2F1804F11D081
:104AA000104B9A420ED0104B9A420BD00F4B9A42A9
:104AB00008D00F4B9A4205D00E4B9A4202D00E4BB3
:104AC0009A4204D1496825F080031943916080F827
:104AD0003D40002180F83C10084670BD022070BDAA
:104AE000000001400004004000080040000C0040AD
:104AF00000040140004001400018004010B50400CF
:104B000003D094F83D0010B107E0012010BD002053
:104B100084F83C00204600F01FF8022084F83D0095
:104B2000211D206803F0EAFA012084F8460084F889
:104B30003E0084F83F0084F8400084F8410084F887
:104B4000420084F8430084F8440084F8450084F867
:104B50003D00002010BD000008B52349026823482D
:104B60008A4207D1016841F001010160006800F04C
:104B700001000BE01D491E4B091F9A4208D108682D
:104B800040F004000860086800F00400009008BDD0
:104B9000184B9A4207D1086840F00800086008687E
:104BA00000F00800F2E714498A4211D1016841F08F
:104BB000020101600068002200F0020000900F2155
:104BC0002D20FEF7D7FBBDE808402D20FEF7C4BB23
:104BD0000A498A42DBD1016841F400310160006872
:104BE00000F40030D2E700000000014044380240E9
:104BF00000080040000C0040000401400044014057
:104C000090F83D10012901D001207047022180F861
:104C10003D100168CA6842F00102CA60006811498B
:104C2000884214D0B0F1804F11D00F4988420ED085
:104C30000E4988420BD00E49884208D00D4988425F
:104C400005D00D49884202D00C49884204D18168C0
:104C500001F00701062903D0016841F0010101605C
:104C600000207047000001400004004000080040A0
:104C7000000C0040000401400040014000180040CA
:104C800070B5044690F83C000025012817D0012695
:104C900084F83C60022084F83D002068826822F09D
:104CA000770222F47F4282600868502838D00DDCF9
:104CB00020284FD005DC90B3102811D14AE0022003
:104CC00070BD302846D040280AD13BE060282FD064
:104CD00070280DD0B0F5805F03D0B0F5005F12D022
:104CE000012584F83D60002084F83C00284670BD12
:104CF000CB68D1E90121206803F071FA206881684E
:104D000041F0770109E0CB68D1E90121206803F087
:104D100066FA2068816841F480418160E1E719E02A
:104D2000CA684968206803F02FFB5021206806E01C
:104D3000CA684968206803F038FB6021206803F0E6
:104D400058FACEE7CA684968206803F01DFB402185
:104D50002068F4E7226801461046F0E7704770B516
:104D60000446006801694FF00005C943890715D45E
:104D7000C168C943890711D4E91E01610120207768
:104D8000206880698007204602D0FFF7E7FF04E033
:104D900000F05FF9204600F01FFA257720680169CE
:104DA000C943490717D4C168C943490713D46FF0F1
:104DB00004010161022020772068806910F4407F9F
:104DC000204602D0FFF7CAFF04E000F042F9204677
:104DD00000F002FA257720680169C943090716D453
:104DE000C168C943090712D46FF0080101610420AA
:104DF00020772068C0698007204602D0FFF7AEFF09
:104E000004E000F026F9204600F0E6F92577206856
:104E10000169C943C90617D4C168C943C90613D477
:104E20006FF010010161082020772068C06910F43C
:104E3000407F204602D0FFF791FF04E000F009F91F
:104E4000204600F0C9F9257720680169C943C907E0
:104E500008D1C168C943C90704D1891E0161204630
:104E600000F042FA20680169C943090609D4C16803
:104E7000C943090605D46FF0800101612046FFF7A0
:104E8000C9FD20680169C943490609D4C168C943FD
:104E9000490605D46FF040010161204600F02EFA6A
:104EA00020680169C94389060BD4C168C9438906D2
:104EB00007D46FF0200101612046BDE87040FFF784
:104EC000AABD70BDF0B587B0044614216846FBF753
:104ED000B5FB3F4B216800253E4802240122994240
:104EE00010D1016841F0100101600068694600F0CE
:104EF000100005904FF4D4408DE83100CDE9035205
:104F0000354813E0354B0326994213D1016841F02F
:104F1000080101600068CDE9022600F00800059054
:104F20001814CDE9000469462D480494FDF75CFD92
:104F300007B0F0BD2B4B994211D1016841F08001BF
:104F400001600068CDE9022400F0800005904FF474
:104F5000E050CDE90004694623480494E6E7234B7A
:104F60004027994220D1016841F4807101600168B5
:104F700001F480710591016841F00401016000684D
:104F8000694600F004000590C0208DE83100CDE9AD
:104F900003561748FDF728FD0097CDE90145CDE9F7
:104FA000035669461348C1E7134B9942C0D10168C3
:104FB00041F02001016000680097CDE9014200F056
:104FC0002000CDE90460694603940C48AEE7000078
:104FD000000001403038024000100240000800404C
:104FE000000C0240000C0040001C02400004014084
:104FF000002002400008024000440140001402402A
:1050000070B5044690F83C00002501280FD001201F
:1050100084F83C006AB1042A0FD0082A11D00C2A67
:1050200013D00125002084F83C00284670BD0220E2
:1050300070BD206803F0E6F8F4E7206803F012F989
:10504000F0E7206803F044F9ECE7206803F074F916
:10505000E8E7704710B5040003D094F83D0010B1A4
:1050600007E0012010BD002084F83C00204600F03D
:105070001EF8022084F83D00211D206803F03EF850
:10508000012084F8460084F83E0084F83F0084F84C
:10509000400084F8410084F8420084F8430084F81A
:1050A000440084F8450084F83D00002010BD70479E
:1050B00070B5044690F83C0000260D4601280FD03C
:1050C000012084F83C006AB1042A1DD0082A2FD0A0
:1050D0000C2A3FD00126002084F83C00304670BDE9
:1050E000022070BD206803F08DF82068816941F0CE
:1050F000080181612068816921F0040181612068D3
:1051000081692A69114311E0206803F0ABF8206837
:10511000816941F4006181612068816921F48061C5
:105120008161206881692A6941EA02218161D2E7AF
:10513000206803F0CDF82068C16941F00801C16121
:105140002068C16921F00401C1612068C1692A6930
:10515000114311E0206803F0EFF82068C16941F4C1
:105160000061C1612068C16921F48061C16120686A
:10517000C1692A6941EA0221C161ACE710B50400A6
:1051800003D094F83D0010B107E0012010BD0020CD
:1051900084F83C00204600F01EF8022084F83D0010
:1051A000211D206802F0AAFF012084F8460084F83F
:1051B0003E0084F83F0084F8400084F8410084F801
:1051C000420084F8430084F8440084F8450084F8E1
:1051D0003D00002010BD7047F0B403460F48002189
:1051E0000D4A0125047812E052F8210006689E421B
:1051F0000BD186881F7FB60805FA06F6B74204D1A0
:105200004169002905D0F0BC0847491CC9B2A14238
:10521000EAD3F0BC70470000ACD40020500400205A
:1052200010B50446022249B104290ED0082913D032
:1052300094F84100012816D0012010BD94F83E00DA
:105240000128F9D184F83E200FE094F83F000128AE
:10525000F2D184F83F2008E094F840000128EBD117
:1052600084F8402001E084F841200122206802F007
:10527000A9FF16492068164A884201D0904203D1FE
:10528000436C43F4004343642068884213D0B0F178
:10529000804F10D00F4988420DD00F4988420AD064
:1052A0000E49884207D0904205D00D49884202D06D
:1052B0000C49884204D1816801F00701062903D016
:1052C000016841F001010160002010BD00000140B3
:1052D000000401400004004000080040000C0040B1
:1052E000004001400018004000680349884201D195
:1052F000FDF7A8BF7047000000200040704738B598
:10530000044690F83E00202822D181B17AB194F869
:105310003C0001281CD0012084F83C00206320467A
:1053200003F0ECF9002803D1216B012901D0012001
:1053300038BD21680A684968009121680C3151E83C
:10534000002F42F0100241E80023002BF5D138BDB8
:10535000022038BD70B50E4618490024164D097854
:1053600026E000BF55F82420D2F8042182421DD146
:1053700055F82400D0F8080128B1804755F82400DA
:105380003146FBF75BF955F8241091F80021D1F86C
:105390000401FFF7B4FF55F82400D0F80401806B36
:1053A0000068016821F00801016070BD641CE4B26E
:1053B0008C42D7D370BD0000ECD4002051040020F3
:1053C00070B512490024104D09781AE055F82420D0
:1053D000D2F80421824212D155F8241091F800210C
:1053E000D1F80401FFF78BFF55F82400D0F8040131
:1053F000806B0068016821F00801016070BD641CC9
:10540000E4B28C42E2D370BDECD400205104002001
:10541000F8B5016804460868CA684B6910F00F0FB8
:105420004FF0000559D003F0010602F4907737439E
:1054300065D0C10705D0D10503D5216C41F001012C
:105440002164410705D5D90703D0216C41F0020141
:105450002164810705D5D90703D0216C41F00401EF
:105460002164010707D502F02001314303D0216CEC
:1054700041F008012164216C00293AD0800604D54E
:10548000900602D5204603F052F820684069216C4E
:10549000C0F38010090700D460B3204603F012F86F
:1054A00020684069400621D52068143050E8001F6C
:1054B00021F0400140E80012002AF5D1A06BA8B10C
:1054C0006C490165A06BFDF7CEF8002811D0A06BE8
:1054D000016D01B0BDE8F040084783060FD5930683
:1054E0000DD52046BDE8F84003F021B82046FFF76F
:1054F00067FFF8BD2046FFF763FF2564F8BD266B04
:105500002023012E79D1C60677D5D60675D5086831
:10551000486800904869400640D5A16B086840681B
:105520000004000CEAD0A28D8242E7D9E085C86968
:10553000B0F5807F2DD020680C3050E8001F21F49A
:10554000807140E80012002AF5D12068143050E83C
:10555000001F21F0010140E80012002AF5D1206867
:10556000143050E8001F21F0400140E80012002AEA
:10557000F5D184F83E30256320680C3050E8001FD8
:1055800021F0100140E80012002AF5D1A06BFDF7D0
:1055900021F8A08DE18D401A81B229E0A08DE18D26
:1055A000401A81B2E08D0028A8D00029A6D020683A
:1055B0000C3050E8002F22F4907240E80026002EB4
:1055C000F5D12068143050E8002F22F0010240E8A5
:1055D0000026002EF5D184F83E30256320680C307B
:1055E00050E8002F22F0100240E80023002BF5D1F4
:1055F0002046FFF7AFFEF8BDFFE705062BD51506E1
:1056000029D594F83D002128F5D1A068B0F5805F38
:1056100001D12069B0B1206A411C21622168007863
:105620004860E08C401E0004000CE084E3D1206858
:10563000C16821F08001C1602068C16841F040016B
:10564000C160D8E7206A0088C0F308004860206A7B
:10565000801C2062E5E74006CDD55006CBD5CA6850
:10566000204622F04002CA6084F83D3000F062F922
:10567000C1E70000CF83000870B5040004D094F89F
:105680003D00002510B106E0012070BD84F83C50BB
:10569000204600F023F8242084F83D002068C168EB
:1056A00021F40051C160204602F0A2FF2068016988
:1056B00021F4904101612068416921F02A01416192
:1056C0002068C16841F40051C1602564202084F83D
:1056D0003D0084F83E00002070BD00002DE9F04F31
:1056E00087B0044614216846FAF7A8FF8548DFF81A
:1056F00010821438D4F800C0824B022103220726FE
:10570000002507154FF0400B4FF0006AC44562D1E9
:10571000D3F800C04CF0100CC3F800C01B6803F0B5
:1057200010030593036843F002030360036803F06A
:1057300002030593036843F0010303600068884691
:1057400000F0010005908020CDE90008CDE902526B
:105750009146694604966C48FDF746F97810CDE904
:105760000008CDE90259694604966848FDF73CF9FE
:10577000684E4FF440396648C6E903577561B56114
:10578000C6E90759D046756286E801093046FDF73B
:105790004FF808B1FCF7B3F86663B4635D4E5C483C
:1057A000603630383060C6E90185C6E90357756157
:1057B000B561C6E9075930467562FDF739F808B199
:1057C000FCF79DF8A663002205212520B463FDF7B0
:1057D000D1FD25203CE0DFF84081C4453DD1494B57
:1057E0001B1FD3F800C04CF4802CC3F800C01B680A
:1057F00003F480230593036843F004030360006807
:1058000000F0040005904FF440608DE82300CDE9DE
:10581000032669464148FDF7E7F83E4E4048C0364A
:105820003060C6E901A5C6E903577561B561F56148
:10583000356230467562FCF7FBFF08B1FCF75FF894
:10584000A663002205212720B463FDF793FD2720DE
:10585000FDF782FD07B0BDE8F08F324EB445F9D1B7
:105860001E6846F020061E601B6803F020030593A7
:10587000036843F040030360006800F040000590B7
:105880004FF484408DE823000820CDE903206946C9
:105890002548FDF7A9F81E48244E78384FF02068B7
:1058A0003060C6E90185C6E9035775614FF40039D8
:1058B000B561C6E9075930467562FCF7B9FF08B112
:1058C000FCF71DF8A663B463184E1148603618380B
:1058D000C6E903577561B561C6E90759756286E87F
:1058E00001093046FCF7A4FF08B1FCF708F866632D
:1058F000002205214720B463FDF73CFD4720A7E7C0
:105900000010014044380240000402400000024000
:10591000B8640240C00D002000480040000802406A
:10592000286002400014014000180240E00E0020F0
:105930007047704770476FF0FF042046FCF792F8FD
:10594000FBE700000148FDF755B90000C40700203F
:105950000148FDF7ACB90000C40700200148FDF77D
:1059600049B90000180800200148FDF7A0B900005F
:105970001808002038B5806B002190F83D202B4B93
:1059800046F2A8141B68B3FBF4F3C3EBC30303EBA9
:10599000830300933BB15B1E009303681B689B0568
:1059A00005D5009BF6E7036C43F020030364436BCB
:1059B00003B1D963836B03B1D96303681C6824F412
:1059C00080641C604185436B03B11965836B03B12F
:1059D000196503681C6824F001041C6090F83D40C0
:1059E0002023602C0BD0282434EA02020FD080F848
:1059F0003D3080F83E1000BFFDF771FA38BD80F8E9
:105A00003D3080F83E100164FDF7F2F838BD0268C1
:105A1000136843F0010313600268136843F4806362
:105A20001360016380F83D40E6E700008800002035
:105A300070B5044690F83D0094F83E10102901D04E
:105A4000402906D1222804D121680A6822F4006284
:105A50000A60282131EA00024FF000054FF02006CD
:105A600026D021684968090505D4602803D084F848
:105A70003D6084F83E50256320684168090537D5AC
:105A8000416821F400614160606B90F835203C4929
:105A9000012A11D00165606BFCF7E5FD38B3206881
:105AA000016821F00101016084F83D60606B1CE039
:105AB000256384F83D10DFE7A06B0165A06BFCF760
:105AC000D2FDA0B120684169C943490605D40069E7
:105AD000616A0870606A401C60622068016821F099
