:020000040800F2
:1000000000260020A10100085D15000895140008D5
:1000100059150008390400083B29000800000000B9
:10002000000000000000000000000000B301000814
:100030006911000800000000B7010008B9010008BC
:10004000BB010008BB010008BB010008BB010008A0
:10005000BB010008BB010008BB010008BB01000890
:10006000BB010008BB010008BB010008BB01000880
:10007000BB010008BB010008BB010008BB01000870
:10008000BB010008BB010008BB010008BB01000860
:1000900041050008BB010008BB010008BB010008C6
:1000A000BB010008BB010008BB010008BB01000840
:1000B0007D210008BB010008BB010008BB0100084E
:1000C000BB010008BB010008BB010008BB01000820
:1000D000BB010008BB010008BB010008592500084E
:1000E000BB010008BB010008BB010008BB01000800
:1000F000BB010008BB010008BB010008BB010008F0
:10010000BB010008BB010008BB010008BB010008DF
:10011000BB010008BB010008BB010008BB010008CF
:10012000BB010008BB010008BB010008BB010008BF
:10013000BB010008BB010008BB010008BB010008AF
:1001400081060008BB010008BB010008BB010008D4
:10015000BB010008BB010008BB010008BB0100088F
:10016000BB010008BB010008BB010008BB0100087F
:10017000BB010008BB010008BB0100080000000033
:10018000BB010008BB010008DFF810D000F02CF81C
:1001900000480047012B0008AFF300800026002034
:1001A0000648804706480047FEE7FEE7FEE7FEE711
:1001B000FEE7FEE7FEE7FEE7FEE7FEE7FD200008BC
:1001C00089010008D2B201E000F8012B491EFBD2E0
:1001D00070470022F6E710B513460A460446194652
:1001E000FFF7F0FF204610BD064C074D06E0E06823
:1001F00040F0010394E8070098471034AC42F6D36E
:10020000FFF7C6FFE42D0008042E000810B51248C1
:100210000078B8B110484078A0B10F48807888B114
:100220000D48C07870B10C48807958B10A48C0793F
:1002300040B10948007A28B10748407A10B1064811
:10024000807A20B9042001F017F9002010BD0220A7
:1002500001F012F90120F9E73401002010B5012066
:100260006449087000206449087064490870644952
:1002700008700120634908700420634908706348CE
:100280000088634908806148008848805F4800888A
:1002900088806048C068604908606048007800282D
:1002A0007CD05F480078002878D000245D48007A30
:1002B000032832D05B48B0F90200B0F5167F09DBA5
:1002C0005948007830B9322401205749087001F0AC
:1002D000D3F822E05348B0F9020010F5167F0BDC8A
:1002E0005148007840B96FF0310401204E49087040
:1002F000062001F0C1F810E04A48B0F9020010F100
:10030000320F0ADB4748B0F90200322805DC002032
:1003100045490870022001F0AFF84248007A0128F0
:1003200004D0022810D0032835D11BE000203F491B
:10033000088036488088204400B234498880354897
:10034000C0683B49886027E00020384908802F4872
:100350004088204400B22D4948802E48C068344966
:10036000486019E02F48008800EB800000B22F4958
:1003700008802C48B0F90600B0F5167F09DB2D483F
:10038000006849F6B61108442A490860002023494C
:10039000087001E002E000BF00BF2AE02148B0F988
:1003A000000010F1140F21DB1E48B0F900001428E2
:1003B0001CDC1C48B0F9020010F1140F16DB1948C0
:1003C000B0F90200142811DC1648B0F9060010F14B
:1003D000140F0BDB1348B0F90600142806DC114893
:1003E000007A032802D101200C49087000200F492F
:1003F000088010BD1C0000201D0000201E000020F1
:100400001F000020200000202500002038000020D0
:10041000B80000202C020020C8000020210000208D
:10042000220000209C020020D8000020CC000020E8
:1004300090020020C000002000BFFEE700B58BB096
:100440000121082001F0CCFA0121480601F0D8FA78
:100450000121480601F0E4FA00214FF0007001F09C
:10046000DFFA0320099002208DF8280000208DF883
:100470002A0001208DF82B0003208DF8290009A9FE
:100480002D4800F08DFF092200212B4800F0D0FFFD
:1004900009220121284800F0CBFF01208DF81F0020
:1004A00000208DF820008DF81E008DF823008DF8B7
:1004B00021008DF822008DF81A000320ADF81800F5
:1004C00009208DF81C0002208DF81D0000208DF8F9
:1004D0001B0006A9194800F068FA0020ADF81000CA
:1004E0008DF8130001208DF814000020ADF80800ED
:1004F000ADF80A00ADF80C00ADF80E008DF8120052
:1005000001208DF8150002A800F02CF9012202212B
:100510000A4800F041FA14208DF8040005208DF8F7
:10052000050000208DF8060001208DF8070001A8C5
:1005300001F016F80BB000BD000C02400064004052
:1005400010B502210A4800F091F978B1012009495B
:100550000860094A0021064800F0B1FA064904483B
:1005600001F008FB0221024800F0A8F810BD0000CD
:1005700000640040230000204001002000B58BB043
:100580000121022001F02CFA0121880601F038FA3D
:100590000121880601F044FA00214FF0806001F04B
:1005A0003FFA6020099002208DF8280000208DF885
:1005B0002A008DF82B0003208DF8290009A92E4868
:1005C00000F0EEFE092205212B4800F031FF092240
:1005D0000621294800F02CFF01208DF81F00002083
:1005E0008DF820008DF81E008DF823008DF8210075
:1005F0008DF822008DF81A000320ADF818000920AC
:100600008DF81C0002208DF81D0000208DF81B00C5
:1006100006A91A4800F0C9F90020ADF810008DF8BD
:10062000130001208DF814000020ADF80800ADF88B
:100630000A00ADF80C00ADF80E000E208DF8120087
:1006400001208DF8150002A800F08CF8012202218B
:100650000A4800F0A1F940208DF8040005208DF82B
:10066000050000208DF8060001208DF8070001A884
:1006700000F076FF0BB000BD0004024000680040AF
:1006800010B502210A4800F0F1F878B101200949BB
:100690000860094A0021064800F011FA064904489A
:1006A00001F068FA0221024800F008F810BD0000CD
:1006B000006800402400002054010020B1F5007FB4
:1006C0003AD00FDC202928D006DC01291CD00429CF
:1006D0001DD0082940D11DE0402921D0B1F5807FEF
:1006E0003AD126E0B1F5004F31D006DCB1F5806F8C
:1006F00025D0B1F5006F2FD124E0B1F5803F12D0A5
:10070000B1F5003F28D111E0154A826025E00822AA
:10071000C26022E01022C2601FE0082202611CE0D9
:100720001022026119E00822426016E010224260A5
:1007300013E00422426010E0042242600DE0042233
:1007400042600AE0002282610422426005E0002249
:1007500082610422426000E000BF00BF70470000D9
:100760000101010010B50021837A012202FA03F190
:100770003D4A126842F001023B4B1A603A4A1C3271
:1007800012688A43384B1C331A60027BCAB9364A56
:100790000C3212688A43344B0C331A604288C38887
:1007A00042EA0343304A4032847A42F834300288C5
:1007B000838842EA03432C4A4032847A02EBC40223
:1007C0005360027B012A19D1274A0C3212680A436E
:1007D000254B0C331A604288038842EA0343224ABD
:1007E0004032847A42F83430C288838842EA034334
:1007F0001D4A4032847A02EBC4025360C27A3AB98D
:10080000194A121D12688A43174B1B1D1A6006E015
:10081000154A121D12680A43134B1B1D1A600289E8
:1008200032B9114A143212688A430F4B14331A60DA
:100830000289012A06D10C4A143212680A430A4B73
:1008400014331A60427B012A06D1074A1C3212680F
:100850000A43054B1C331A60034A126822F0010256
:10086000014B1A6010BD00000066004070B50446E0
:100870000D46002660692840002871D0B5F5807FBC
:100880005CD010DC082D35D006DC012D20D0022DE7
:1008900024D0042D72D127E0102D31D0202D35D059
:1008A000402D6BD138E0B5F5004F60D009DCB5F5CF
:1008B000007F49D0B5F5806F4CD0B5F5006F5DD1A4
:1008C0004FE0B5F5803F2DD0B5F5003F56D12FE074
:1008D000A0682D4900F0FEF9064651E0E0680321CA
:1008E00000F0F8F906464BE0E068082100F0F2F964
:1008F000064645E0E068102100F0ECF906463FE0CE
:100900002069032100F0E6F9064639E02069082154
:1009100000F0E0F9064633E02069102100F0DAF932
:1009200006462DE06068082100F0D4F9064627E06D
:100930006068102100F0CEF9064621E0A06901218F
:1009400000F0C8F906461BE0A069022100F0C2F9D8
:10095000064615E0A069042100F0BCF906460FE048
:100960000FE0A069702100F0B5F9064608E0606864
:10097000042100F0AFF9064602E0FFE7002600BFC1
:1009800000E00026304670BD0101010010B5FFF700
:1009900055FDFFF7F3FD10BD1AB143690B434361E9
:1009A00002E043698B434361704730B50246002043
:1009B0000023146824F002041460146844F0010455
:1009C000146000E05B1C546804F001041CB94FF68D
:1009D000FF74A342F6D1546804F001040CB900205E
:1009E0006CE08C79012C04D1146844F0800414600C
:1009F00003E0146824F080041460CC79012C04D145
:100A0000146844F04004146003E0146824F04004C7
:100A100014600C7A012C04D1146844F02004146092
:100A200003E0146824F0200414604C7A012C04D1F3
:100A3000146844F01004146003E0146824F01004F7
:100A400014608C7A012C04D1146844F008041460FA
:100A500003E0146824F008041460CC7A012C04D15B
:100A6000146844F00404146003E0146824F00404DF
:100A700014608C78A407CD7844EA05640D7944EAC3
:100A800005444D7944EA05540D886D1E2C43D4610C
:100A9000146824F001041460002300E05B1C546817
:100AA00004F001041CB14FF6FF74A342F6D1546860
:100AB00004F001040CB1002000E0012030BD10B5AD
:100AC00000F5D87303EB01131B6803F004031372E2
:100AD000137A53B900F5D87303EB01131B6840F286
:100AE000FF7404EA5353136009E000F5D87303EB75
:100AF00001131B686FF0604404EAD303536000F5F0
:100B0000D87303EB01131B6803F00203537200F563
:100B1000D87303EB01135B6803F00F03937200F5C6
:100B2000D87303EB01135B681B0AD37400F5D87309
:100B300003EB01139B68D37200F5D87303EB011329
:100B40009B681C0A147300F5D87303EB01139B68B0
:100B50001C0C547300F5D87303EB01139B681B0E38
:100B6000937300F5D87303EB0113DB68D37300F5BF
:100B7000D87303EB0113DB681C0A147400F5D873F7
:100B800003EB0113DB681C0C547400F5D87303EB02
:100B90000113DB681B0E937421B9C36843F0200373
:100BA000C36003E0036943F02003036110BD10B587
:100BB00002460020936803F08063B3F1806F00D198
:100BC00010E0936803F00063B3F1006F01D10120DE
:100BD00008E0936803F08053B3F1805F01D10220F5
:100BE00000E00420042874D002F5C07303EB001366
:100BF0001B6803F0010402F5C07303EB00131C60D3
:100C00000B7A7BB94B7A0C8843EA445302F5C074E3
:100C100004EB00142468234302F5C07404EB0014B1
:100C2000236010E00B7A4C6843EAC4034C7A2343F8
:100C300002F5C07404EB00142468234302F5C07469
:100C400004EB001423608B7A03F00F038B7202F520
:100C5000C07303EB00135B6823F00F0402F5C0734D
:100C600003EB00135C6002F5C07303EB00135B68D9
:100C70008C7A234302F5C07404EB001463608B7B11
:100C80001C064B7B44EA03440B7B44EA0323CC7AE7
:100C9000234302F5C07404EB0014A3608B7C1C0694
:100CA0004B7C44EA03440B7C44EA0323CC7B234380
:100CB00002F5C07404EB0014E36002F5C07303EBAB
:100CC00000131B6843F0010402F5C07303EB00132B
:100CD0001C6010BD0246002002EA01030BB1012096
:100CE00000E00020704700001F48C0681F490968E5
:100CF000401AFA2807DA1C48C0681C490968401ADB
:100D000010F1FA0F03DC0020194908702AE0194895
:100D1000C06819490968401A0C2807DA1548C068E4
:100D200015490968401A10F10C0F03DC0020104926
:100D3000087017E01148C06811490968401A41F26B
:100D40008831884207DA0D48C0680D490968401AA1
:100D50000C49884203DC00200549087002E00120AC
:100D6000034908707047000048020020C0000020BE
:100D7000220000202C020020C80000206402002075
:100D8000D000002078ECFFFF10B501201349087057
:100D90000020134908701349087013490870012096
:100DA0001249087000201249087012490870124850
:100DB0000078012805D1114801F01CFE00200E49E1
:100DC00008700F480078012807D10022114610460C
:100DD00001F0EAFD00200A49087010BD1C00002047
:100DE0001D0000201E0000201F0000202000002009
:100DF000220000202100002023000020F005002018
:100E0000240000200246094B9A4201D2084801E022
:100E10000648103801F000531BB1064B0B40C3606D
:100E200002E0044B0B4083607047000010640240F6
:100E3000006002407D0F7D0F21B1026842F0010287
:100E4000026003E0026822F00102026070470000C5
:100E5000016821F0010101600021016041608160B1
:100E6000C1600161212141614A49884204D13D218B
:100E7000484A103A91608CE046491831884205D1C1
:100E80004FF47461434A103A916082E04149303135
:100E9000884205D14FF474113E4A103A916078E0CF
:100EA0003C494831884205D14FF07461394A103AC3
:100EB00091606EE037496031884204D13649354A45
:100EC000103AD16065E033497831884204D1334922
:100ED000304A103AD1605CE02E499031884204D10A
:100EE0002F492C4A103AD16053E02A49A831884250
:100EF00005D14FF03D51274A103AD16049E02949C8
:100F0000884204D13D21274A083A116041E0254931
:100F10001831884205D14FF47461224A083A1160B1
:100F200037E020493031884205D14FF474111D4A11
:100F3000083A11602DE01B494831884205D14FF035
:100F40007461184A083A116023E0164960318842FA
:100F500004D11149134A121F11601AE01149783166
:100F6000884204D10D490F4A121F116011E00D494A
:100F70009031884204D10A490A4A121F116008E0E0
:100F80000849A831884204D14FF03D51054A121F4B
:100F900011607047106002403D000020400F0020AB
:100FA00000003D201064024021B1026842F480221A
:100FB000026003E0026822F480220260704722B1DE
:100FC000036843F40023036003E0036823F4002371
:100FD0000360016170470146486880B2704701466E
:100FE00000200A6802F400220AB1012000E000207B
:100FF0007047000010B500220268134B1A40CC68FD
:101000000B6823434C6923438C692343CC692343F6
:101010000C6A23434C6A23438C6A23434C6B23435F
:101020008C6B23431A430260426922F00702D1E924
:101030000B3423431A4342610B6943604B6883605E
:101040008B68C36010BD00003F801CF0416070479A
:1010500010B53C48407A022805D1FFF795FE0020E4
:1010600000F072FD6CE0FFF73FFE3748007870B18A
:101070003448407A012802D0032806D102E000F06B
:1010800075F803E0FFF7EAF800E000BF56E02D48EE
:10109000407A012802D003284ED14AE000F00CFC2F
:1010A0002A48007830B1012813D0022820D0032824
:1010B0003CD12CE026480088264908802448008836
:1010C0004880254800682549496808442449086043
:1010D0002DE0244840881F4908801D4840884880EA
:1010E0001D4840681D49496808441D4908601EE0C4
:1010F0001C48808817490880154880884880164811
:101100008068164949680844154908600FE0154889
:10111000C088104908800E48C08848800E48C068C2
:101120000E49496808440E49086000E000BF00BF4E
:1011300003E0FFF793F800E000BF00BF00F0C8FD38
:1011400010BD00009C0200201C0000203600002082
:101150002E000020B8000020800200209002002015
:10116000C8000020260000207047000010B50020B5
:1011700068490870684908700120684908700020B3
:101180006749087067480078002876D0664800787C
:101190000028FAD06548007A012804D0022811D02E
:1011A00003286CD157E06248808862490880624811
:1011B000808848806148808888806148806861496B
:1011C00008605DE06048007830B1012813D0022843
:1011D00020D003283CD12CE05C4800885549088089
:1011E0005A48008848805A48006855494968084468
:1011F000544908602DE0574840884E4908805348BC
:1012000040884880524840684D49496808444D49E3
:1012100008601EE04F488088464908804B48808817
:1012200048804B48806846494968084445490860F9
:101230000FE04848C0883F4908804448C08848803B
:101240004348C0683E49496808443E49086000E098
:1012500000BF00BF14E001203F49087034480088F7
:1012600034490880344800884880344800888880A1
:101270003A48C0683349086002E021E0FFE700BF58
:1012800000BF2A48B0F90600B0F5167F40DB2748BA
:10129000007A03283CD000203149087021490870A9
:1012A0001D4908701B4908701C4908704FF618400A
:1012B0002C4908801E2000F0E3FF00F053FF27E0D8
:1012C00019480078E8B11948007A032807D117486F
:1012D000B0F90600142802DC01201249087002202F
:1012E0001D49087012480088124908801248008879
:1012F00048801248008888801848C06811490860F2
:1013000006E00320144908701448C0680D490860BD
:1013100010BD00001E0000201F0000202000002043
:10132000210000201D000020220000209C0200203F
:1013300038000020B80000203E00002044000020BB
:1013400090020020C8000020360000202E0000205F
:101350008002002026000020250000202C02002012
:101360001C000020D40000201CB50121802000F0CA
:1013700037FB4FF4E050009001208DF804008DF809
:10138000070000208DF806008DF805006946034827
:1013900000F006F8072000F06FF81CBD001C0240AA
:1013A000F0B50A4600210023002400BF3DE00125DE
:1013B00005FA01F3156805EA03049C4234D1056877
:1013C0004F000326BE40B543056015794E00B54079
:1013D0000668354305601579012D02D01579022D77
:1013E00016D185684F000326BE40B5438560557908
:1013F0004E00B540866835438560456801268E40BD
:10140000B5434560456896798E40B6B23543456030
:10141000C5684F000326BE40B543C560D5794E0070
:10142000B540C6683543C560491C1029BFD3F0BD1F
:10143000F0B5002300244D07ED0E02FA05F3CE109F
:1014400000F1200555F826504E07F70E0F26BE4036
:10145000B543CF1000F1200646F82750CE1000F11A
:10146000200555F8265045EA0304CE1000F120056A
:1014700045F82640F0BD000010B504464FF6FF7059
:1014800000EA8421014800F003F810BD001C02406E
:101490004161704700BFFEE710B52648C068264985
:1014A00088602448C06848602448C06824490860AF
:1014B0002448B0F9040000EE900AF8EEE00AB0EE1D
:1014C000600ADFED210A214801F070FBBDEEC00A81
:1014D00010EE100A00B21E4908800846B0F900203C
:1014E0000021084601F060FA1648B0F904003228DD
:1014F00005DC1448B0F9040010F1320F05DA0A20B7
:1015000000F0BEFE00F02EFE12E000F031FE78B1D9
:10151000322000F0B5FE00F025FE00BF00F028FEEE
:101520000028FBD00748C0680A490860012010BDA8
:101530000020FCE72C02002090020020480200203E
:10154000C00000206402002000004843A0050020E5
:10155000D6000020D000002000BFFEE7704700004A
:1015600070B5002100230F22C4781CB3174C2468E7
:1015700004F4E064C4F5E064C4F30721C1F1040499
:10158000E3B20A4144789C40E1B28478144021439C
:101590000C07210E0E4C05786155047804F01F05E8
:1015A0000124AC4005786D11AD0005F1E025C5F8CA
:1015B000004109E0047804F01F050124AC40054D0A
:1015C0000678761145F8264070BD00000CED00E06D
:1015D00000E400E080E100E002490143024A1160BA
:1015E000704700000000FA050CED00E010B57E48E1
:1015F000D0ED021AB0EE611AD0ED011AF0EE610AD8
:10160000D0ED001AB0EE610A002341F288324FF4A7
:101610007A51764800F012F97348D0ED021AB0EE14
:10162000611AD0ED011AF0EE610AD0ED001AB0EEA9
:10163000610A002341F288324FF47A516C4800F07D
:10164000FDF86C48D0ED021AB0EE611AD0ED011A27
:10165000F0EE610AD0ED001AB0EE610A002341F20B
:1016600088324FF47A51644800F0E8F86148D0EDD0
:10167000021AB0EE611AD0ED011AF0EE610AD0ED57
:10168000001AB0EE610A002341F288324FF47A5119
:101690005A4800F0D3F85A48D0ED021AB0EE611A59
:1016A000D0ED011AF0EE610AD0ED001AB0EE610A39
:1016B000002341F288324FF47A51524800F0BEF8CC
:1016C0004F48D0ED021AB0EE611AD0ED011AF0EEDB
:1016D000610AD0ED001AB0EE610A002341F28832AF
:1016E0004FF47A51484800F0A9F84848D0ED021A62
:1016F000B0EE611AD0ED011AF0EE610AD0ED001AD9
:10170000B0EE610A002341F288324FF47A5140482A
:1017100000F094F83F48D0ED021AB0EE611AD0ED17
:10172000011AF0EE610AD0ED001AB0EE610A002352
:1017300041F288324FF47A51374800F07FF8374849
:10174000D0ED021AB0EE611AD0ED011AF0EE610A86
:10175000D0ED001AB0EE610A002341F2883243F660
:1017600098212F4800F06AF82E48D0ED021AB0EE0A
:10177000611AD0ED011AF0EE610AD0ED001AB0EE58
:10178000610A00234FF496724FF4FA61264800F084
:1017900055F82648D0ED021AB0EE611AD0ED011AC4
:1017A000F0EE610AD0ED001AB0EE610A002341F2BA
:1017B00088324FF47A511E4800F040F81D48D0EDB1
:1017C000021AB0EE611AD0ED011AF0EE610AD0ED06
:1017D000001AB0EE610A002341F288324FF47A51C8
:1017E000154800F02BF810BD4C000020B40200207A
:1017F000F8020020580000203C0300208003002055
:1018000064000020C40300200804002070000020B1
:101810004C0400207C000020900400208800002060
:10182000D40400209400002018050020A00000200F
:101830005C050020AC000020A00500202DE9F0414F
:101840002DED048B0446B0EE408AF0EE608AB0EED7
:10185000419A0E4617461D46C5B91548E06315481E
:1018600020643A463146B0EE491AF0EE680AB0EE0E
:10187000480A2046E36B9847B0EE491AF0EE680A32
:10188000B0EE480A2046216C88470CE00848E06327
:101890003A463146B0EE491AF0EE680AB0EE480A10
:1018A0002046E36B9847BDEC048BBDE8F081000057
:1018B0004F2C0008692C000810B500203D49087025
:1018C0003D4908703D4908703D48007898BB3D4847
:1018D000B0F90400322805DC3A48B0F9040010F1F0
:1018E000320F05DA0A2000F0CBFC00F03BFC60E090
:1018F00000F03EFC00285CD03348B0F9000000281E
:1019000009DA4FF47A70304908801E2000F0B8FCE4
:1019100000F028FC4DE000202B49088001202849D8
:1019200008702A480078032806DA28480078401C06
:10193000264908703DE003E000202449087038E0A3
:101940002348007838BB2348007870B922480068E3
:10195000224908442049086001201E4908703220AD
:1019600000F08EFC00F0FEFB23E000F001FC00B371
:1019700000201849087001201549087000201049FE
:1019800008704FF61840104908801E2000F078FCBF
:1019900000F0E8FB0DE01048006849F6B611084475
:1019A0000D49086001200449087002490870044983
:1019B000087010BD1D0000201C0000202100002028
:1019C0002000002064020020D40000203600002007
:1019D0001F0000201E000020C00000206C3301000A
:1019E00029B1064A12680243044B1A6004E0034A14
:1019F00012688243014B1A60704700003038024081
:101A000029B1064A12680243044B1A6004E0034AF3
:101A100012688243014B1A60704700004038024050
:101A200029B1064A12680243044B1A6004E0034AD3
:101A300012688243014B1A60704700002038024050
:101A400029B1064A12680243044B1A6004E0034AB3
:101A500012688243014B1A6070470000243802402C
:101A6000F0B5002100220024022500260223324F77
:101A70003F6807F00C0121B1042905D0082937D1AE
:101A800005E02E4F076036E02D4F076033E02A4F08
:101A90003F1F3F68C7F38056274F3F1F3F6807F03F
:101AA0003F036EB1264FB7FBF3F7DFF88CC0ACF104
:101AB000040CDCF800C0CCF3881C07FB0CF40CE031
:101AC0001E4FB7FBF3F7DFF870C0ACF1040CDCF885
:101AD00000C0CCF3881C07FB0CF4174F3F1F3F6876
:101AE000C7F301477F1C7D00B4FBF5F7076002E0F8
:101AF000124F076000BF00BF0F4F3F6807F0F001B3
:101B00000909104F7A5C0768D74047600A4F3F6861
:101B100007F4E051890A0B4F7A5C4768D740876029
:101B2000054F3F6807F46041490B064F7A5C4768F0
:101B3000D740C760F0BD0000083802400024F40020
:101B4000001BB700010000200649097A022900D0D5
:101B500030B10549C968054A11600021044A117075
:101B6000704700009C02002048020020C0000020B6
:101B70003600002030B505460C464C48854263D1FE
:101B80002078401E4A4908702068A0F201200628EB
:101B900058D2DFE800F003111F2D3B4914204549BE
:101BA000087043490978C1EBC101434A02EB810047
:101BB000214600F065FF46E014203E4948703C494C
:101BC0000978C1EBC1013C4A02EB8100214600F0DB
:101BD00057FF38E014203749887035490978C1EB40
:101BE000C101354A02EB8100214600F049FF2AE09D
:101BF00014203049C8702E490978C1EBC1012E4A22
:101C000002EB8100214600F03BFF1CE01420294933
:101C1000087127490978C1EBC101274A02EB81000D
:101C2000214600F02DFF0EE0142022494871204982
:101C30000978C1EBC101204A02EB8100214600F086
:101C40001FFF00E000BF2FE01C4885422CD1206818
:101C5000A0F2012030B101280CD0022812D00928AE
:101C600020D117E01420134988712146144800F050
:101C700007FF18E014200F4908722146114800F0B0
:101C8000FFFE10E014200B49487221460E4800F078
:101C9000F7FE08E014200749C87121460B4800F000
:101CA000EFFE00E000BF00BF30BD00000064004058
:101CB0001800002034010020680100200068004066
:101CC0001002002048020020640200202C020020A4
:101CD00010B5B148007801287DD1B048B0F90000B6
:101CE000404201EE100AB8EEC11AF0EE410AAC48CB
:101CF000B0F9040001EE100AB8EEC11AB0EE410AC4
:101D0000A84800F053FFBDEEC00A10EE100A00B262
:101D1000A5490880A148B0F9000001EE100AB8EE0C
:101D2000C11AF0EE410A9E48B0F9200001EE100AF7
:101D3000B8EEC11AB0EE410A9C4800F037FFBDEE84
:101D4000C00A10EE100A00B2974948809348B0F9D3
:101D50000200404201EE100AB8EEC11AF0EE410A4C
:101D60008F48B0F93C0001EE100AB8EEC11AB0EE8F
:101D7000410A8F4800F01AFFBDEEC00A10EE100AAB
:101D800000B2894988808548B0F9020001EE100A46
:101D9000B8EEC11AF0EE410A8148B0F9580001EEE0
:101DA000100AB8EEC11AB0EE410A824800F0FEFEF9
:101DB000BDEEC00A10EE100A00B27B49C880774819
:101DC000B0F90400404201EE100AB8EEC11AF0EE7C
:101DD000410A734800E033E0B0F93C0001EE100A1C
:101DE000B8EEC11AB0EE410A714800F0DFFEBDEE58
:101DF000C00A10EE100A00B26B4908816748B0F9BA
:101E0000040001EE100AB8EEC11AF0EE410A64486F
:101E1000B0F9580001EE100AB8EEC11AB0EE410A4E
:101E2000644800F0C3FEBDEEC00A10EE100A00B216
:101E30005D494881084600F0DDFD002056490870E4
:101E40005D48007801287DD15C48407A012815D191
:101E50005B48D0ED030AF8EEE00AB0EE600A59489C
:101E6000D0ED000AF8EEE00A574800F09FFEBDEE04
:101E7000C00A10EE100A00B2544908805448B0F964
:101E8000040000EE900AF8EEE00AB0EE600A4F4857
:101E9000B0F9000000EE900AF8EEE00A4D4800F0BC
:101EA00085FEBDEEC00A10EE100A00B24A49088055
:101EB0004A48D0ED030AF8EEE00AB0EE600A48485E
:101EC000D0ED000AF8EEE00A464800F06FFEBDEEE5
:101ED000C00A10EE100A00B2434908803F48B0F92A
:101EE000040000EE900AF8EEE00AB0EE600A084640
:101EF000B0F9000000EE900AF8EEE00A3B4800F06E
:101F000055FEBDEEC00A10EE100A00B23849088036
:101F100038480078A8B13848D0ED030AF8EEE00A56
:101F2000B0EE600A3548D0ED000AF8EEE00A344819
:101F300000F03CFEBDEEC00A10EE100A00B23149BE
:101F4000088000E027E02C48B0F9040000EE900A79
:101F5000F8EEE00AB0EE600A2A48B0F9000000EEA0
:101F6000900AF8EEE00A284800F020FEBDEEC00A14
:101F700010EE100A00B2254908800846B0F900208A
:101F80001B48B0F900101448B0F9000000F00CFD37
:101F900000200949087010BD23000020B80000206F
:101FA00068010020B4020020E4050020F8020020AF
:101FB0003C03002080030020240000209C0200201D
:101FC0002C020020C80000204C040020CC0000207F
:101FD0001002002090040020CE00002048020020C3
:101FE000C0000020D4040020C400002018050020F8
:101FF000C60000202000002064020020D000002045
:102000005C050020D4000020A0050020D6000020A0
:102010000CB50020019000903448006840F48030F6
:102020003249086000BF3148006800F40030009079
:102030000198401C0190009818B90198B0F5A04F84
:10204000F1D12A48006800F4003010B1012000905E
:1020500001E0002000900098012846D1234840303C
:10206000006840F0805021494031086020480068F5
:1020700040F440401E4908601C48083000681B4975
:10208000083108600846006840F4004008600846CF
:10209000006840F4A05008601648091F0860081F37
:1020A000006840F08070091F086000BF0F4800689A
:1020B00000F000700028F9D040F205700E49086069
:1020C0000A480830006820F0030008490831086019
:1020D0000846006840F00200086000BF034808306E
:1020E000006800F00C000828F8D10CBD0038024050
:1020F000007000400C544007003C024010B51548E9
:10210000006840F47000134908601348006840F00C
:1021100001001149086000200F49083108600E488D
:1021200000680E4908400C4908600D48091D086008
:10213000081F006820F48020091F0860002006495D
:102140000C310860FFF764FF4FF0006001498039EF
:10215000086010BD88ED00E000380240FFFFF6FE89
:10216000103000240020014908707047140000203E
:1021700001480078704700001400002010B50121CC
:10218000880700F092F8012873D13A4800880028A7
:1021900005DD38480088401E3649088002E00120ED
:1021A0003549087035480078002804DD3348007848
:1021B000401E3249087031484078002804DD2F481D
:1021C0004078401E2D4948702C488078002804DD56
:1021D0002A488078401E294988702848C0780028FD
:1021E00004DD2648C078401E2449C8702348007981
:1021F000002804DD21480079401E204908711F484D
:102200004079002804DD1D484079401E1B49487173
:102210001A488079002804DD18488079401E174943
:1022200088711648C079002804DD1448C079401E22
:102230001249C8711148007A002804DD0F48007A5D
:10224000401E0E4908720D48407A002804DD0B48F4
:10225000407A401E094948720848807A002804DD07
:102260000648807A401E054988720121880700F0DF
:102270000DF810BD160000201400002034010020CD
:10228000014908807047000016000020CA430282FE
:10229000704721B1028842F00102028004E0028806
:1022A0004FF6FE731A400280704730B50246002098
:1022B00000230024158A05EA0103958905EA010433
:1022C00013B10CB1012000E0002030BD1AB18389A8
:1022D0000B43838102E083898B43838170470189AB
:1022E0004FF6F87211400181704700000022028809
:1022F000184B98420ED0184B98420BD0B0F1804F3B
:1023000008D0164B984205D0154B984202D0154B79
:10231000984204D14FF68F731A404B881A43124BE0
:10232000984207D0114B984204D04FF6FF431A4011
:102330000B891A4302804B68C3620B880385054BE7
:10234000984202D0044B984201D18B7A0386012334
:1023500083827047000001400004014000040040F7
:1023600000080040000C0040001000400014004035
:102370001FB501210846FFF743FB4FF08040FFF7F0
:10238000AEFF0020ADF80C00ADF8060040F2F310EF
:10239000029041F26700ADF8040000208DF80E00B5
:1023A00001A94FF08040FFF7A1FF012211469007DD
:1023B000FFF78CFF4FF4A060FFF70EF91C208DF89B
:1023C000000001208DF8030002208DF8010001209B
:1023D0008DF802006846FFF7C3F801218807FFF770
:1023E00058FF1FBD0EB501210846FFF7F9FA01217C
:1023F0000420FFF7F5FA01218804FFF701FB012112
:102400008804FFF70DFB00214FF48020FFF708FB45
:1024100007220B212648FFF70BF84FF400600190CC
:1024200002208DF8080000208DF80A0001208DF8A8
:102430000B0003208DF8090001A91D48FEF7B0FF2D
:102440001C4800F037F91C481C49086000208880AF
:10245000C8804FF480600881042048810020888172
:10246000144800F0FBF90121124800F00DF9102189
:10247000104800F0F1F810210E4800F0F6F80122A3
:1024800040F224410B4800F0C4F927208DF80000E9
:1024900005208DF8010000208DF8020001208DF844
:1024A00003006846FFF75CF800F00AF80EBD000074
:1024B0000008024000480040A086010024010020DE
:1024C00000B58FB001214805FFF78AFA01224021AB
:1024D0001E4800F0E5F81E48FEF7BAFC4FF0006019
:1024E00000901A48001D01901A48029000200390A5
:1024F00024200490002005904FF480600690002076
:10250000079008904FF48070099000200A900B907B
:1025100003200C9000200D900E9069460C48FEF7A9
:1025200069FD00220B4924310948FEF748FD0121CD
:102530000748FEF739FD00210548FEF77DFC012123
:102540000348FEF779FC0FB000BD000000480040D2
:1025500028600240DC00002010B51021374800F050
:1025600021F9002869D040F22441344800F027F9CD
:10257000002862D0314800F0DBF93148FEF72FFD2A
:1025800038BB00212E48FEF757FC2D48FEF723FDEF
:10259000C0F124002B49088008460088242803D174
:1025A00029492A4800F07AFB24212548FEF74EFDF0
:1025B00023482838806A40F400202149283988625D
:1025C00023491F48FEF71EFC01211D48FEF734FC7D
:1025D00028E000211A48FEF72FFC19481830FEF7B2
:1025E000FAFCC0F124001749088008460088242816
:1025F00004D115492431154800F050FB242110481E
:10260000FEF724FD0E482838806A20F400200C498B
:10261000283988620E490A48FEF7F4FB0121084870
:10262000FEF70AFC14200B4988721021034800F0C1
:1026300013F81021014800F018F810BD00480040C0
:102640002860024012000020DC0000209C020020D4
:10265000000030103401002001F40072B2F5007F58
:1026600000D100BFCA430280704710B5002200238A
:1026700040F66A14A14200D100BF0A12012494401E
:10268000A3B2DC43048010BD21B1828942F4005220
:10269000828104E082894DF6FF731A40828170477F
:1026A0001AB1838A0B43838202E0838A8B4383823D
:1026B0007047000010B504463248844208D1012119
:1026C0001020FFF7BDF900211020FFF7B9F957E0FE
:1026D0002D48844209D101214804FFF7A1F90021C6
:1026E0004FF40030FFF79CF94AE02848844209D1B2
:1026F00001218804FFF794F900214FF48020FFF7AF
:102700008FF93DE02248844209D10121C804FFF736
:1027100087F900214FF40020FFF782F930E01D48CF
:10272000844209D101210805FFF77AF900214FF40D
:102730008010FFF775F923E01748844208D1012182
:102740002020FFF77DF900212020FFF779F917E01D
:102750001248844209D101218807FFF761F900215D
:102760004FF08040FFF75CF90AE00D48844207D142
:1027700001214005FFF754F900216005FFF750F9EA
:1027800010BD00000010014000440040004800401F
:10279000004C004000500040001401400078004010
:1027A000007C004002460020B1F5007F00D100BF50
:1027B00013880B400BB1012000E00020704770B57A
:1027C0000246002400230025002040F66A16B1428C
:1027D00000D100BFC1F3421501F01F03012606FA24
:1027E00003F3012D02D19689334006E0022D02D178
:1027F000168A334001E0968A33400C12012606FA0D
:1028000004F41688344013B10CB1012000E000201C
:1028100070BDF0B50346002400260025002040F6D8
:102820006A17B94200D100BF1846C1F3421401F043
:102830001F06012707FA06F5012C01D10C3004E030
:10284000022C01D1103000E014301AB107682F4378
:10285000076002E00768AF430760F0BD2DE9FF475E
:1028600005460E460024A14600BFA046B08900B12F
:1028700000BF2C8A24F44054F08804432C82AC8995
:1028800041F20C608443B088318908437189084360
:102890000443AC81AC8A24F44074B0890443AC8214
:1028A0006846FFF7DDF82048854202D01F48854280
:1028B00002D1DDF80C9001E0DDF80890A88900F461
:1028C000004040B109EBC90000EB09103168490034
:1028D000B0FBF1F707E009EBC90000EB0910316824
:1028E0008900B0FBF1F76420B7FBF0F00401200988
:1028F000642101FB1078A88900F4004040B1322027
:1029000000EBC800B0FBF1F000F00700044308E062
:10291000322000EB08106421B0FBF1F000F00F0052
:1029200004432C81BDE8FF870010014000140140E2
:1029300001468888C0F30800704700BFFEE702E048
:1029400008C8121F08C1002AFAD17047704700203A
:1029500001E001C1121F002AFBD17047D0ED000A2F
:1029600000EE101AB8EEC00AF4EEC00AF1EE10FA4A
:1029700005DD00EE101AB8EEC00A80ED000AD0EDB9
:10298000000A4A4200EE102AB8EEC00AF4EEC00A6D
:10299000F1EE10FA06D24A4200EE102AB8EEC00A52
:1029A00080ED000A7047000070B586B004460D4601
:1029B000164600208DF80C008DF80D0008208DF8CB
:1029C0000E0080010190200A8DF80F008DF8104054
:1029D000290A8DF811108DF81250310A8DF8131054
:1029E0008DF8146001A90248FEF7E1F806B070BD49
:1029F0000068004010B586B0044600208DF80C0039
:102A00008DF80D0008208DF80E00800101902088BF
:102A1000000A8DF80F0021788DF810106088010AE7
:102A20008DF81110A1788DF81210A088010A8DF888
:102A3000131021798DF81410E088010A8DF8151013
:102A4000A1798DF8161001A90C48FEF7B0F840F2F4
:102A5000FF1001902089000A8DF80F00217A8DF86F
:102A600010106089010A8DF81110A17A8DF81210EA
:102A700001A90248FEF79BF806B010BD00640040B3
:102A8000028842800A7BCB7A42EA032202800288D3
:102A90004388D21AB2F5805F09DD8268521E8260D7
:102AA00002884388D21AA2F50052826113E002889C
:102AB0004388D21A12F5805F09DA8268521C82605C
:102AC00002884388D21A02F50052826103E002882C
:102AD0004388D21A82610388826803EB4232038AF8
:102AE000D21AC2608B7B4A7B43EA022212B28280F6
:102AF0000B7CCA7B43EA022212B2C28070470000FC
:102B0000FEF732FCFDF742FFFFF76CFCFFF730FCED
:102B1000FEF76CFD1420FFF7B3FBFFF723FB0EE07D
:102B2000FEF732F9FDF772FB28B91420FFF7A8FB76
:102B3000FFF718FB03E0FFF71BFB00B100E0EFE736
:102B400000BF0AE0FEF752FDFEF71EF91548407A75
:102B5000022802D101201449087013480078002887
:102B6000F0D01420FFF78CFBFFF7FCFA01E0FEF732
:102B70000BF9FEF791FC0028F9D011E0FDF746FBB8
:102B800020B1FEF733FDFEF763FA09E004E0FEF73B
:102B9000FBF80120FEF7D8FFFDF738FB0028F6D040
:102BA000ECE700009C0200200000002010B52DED95
:102BB000028B0446B0EE408AF0EE608A84ED018A12
:102BC000C4ED008A38EEC80A84ED020A94ED050AC5
:102BD000D4ED020A20EE200A84ED080A94ED090AD9
:102BE000D4ED060A94ED021A00EE810A84ED090A7A
:102BF00094ED020AD4ED030A30EE600AD4ED070A20
:102C000020EE200A84ED0A0A04F12400616BFFF72C
:102C1000A5FE94ED080AD4ED090A30EE200AD4EDA1
:102C20000A0A30EE200A84ED0B0A04F12C00216B15
:102C3000FFF794FE94ED030A84ED040A94ED020A72
:102C400084ED030A94ED0B0ABDEC028B10BD80ED00
:102C5000050AC0ED060A80ED071A01634263F1EE32
:102C6000041AC0ED0E1A704780ED050AC0ED060A81
:102C700080ED071ADFED081AC0ED081ADFED061A1D
:102C8000C0ED091ADFED041AC0ED0A1ADFED021AD1
:102C9000C0ED0B1A704700000000000070B504463C
:102CA0000D462878697840EA0120C0F30A002080A8
:102CB0002088A0F5806000B220806878C010A978D4
:102CC00040EA4110C0F30A0060806088A0F580608F
:102CD00000B26080A8788011E97840EA8100297903
:102CE00040EA8120C0F30A00A080A088A0F580609F
:102CF00000B2A08028794010697940EAC110C0F381
:102D00000A00E080E088A0F5806000B2E080B4F9BD
:102D10000000052806DCB4F9000010F1050F01DB06
:102D200000202080B4F90200052806DCB4F9020076
:102D300010F1050F01DB00206080B4F904000528C4
:102D400006DCB4F9040010F1050F01DB0020A080BF
:102D5000B4F90600052806DCB4F9060010F1050FE9
:102D600001DB0020E080687900118008207268791A
:102D7000C0F301106072287C697C40EA0120C0F336
:102D80000A006081B4F90030002B01DB1E4600E030
:102D90005E42B6F5257F1DDCB4F90220002A01DB76
:102DA000164600E05642B6F5257F13DCB4F9041050
:102DB000002901DB0E4600E04E42B6F5257F09DC16
:102DC000B4F90600002801DB064600E04642B6F5ED
:102DD000257F04DD16212046FDF7FBF970BD00BFFD
:102DE000FCE70000042E000800000020DC000000CA
:102DF0003E290008E02E0008DC0000202425000009
:102E00004E29000800000000000102030401020333
:102E10000406070809000000000000000000000090
:102E200001000000000000000000A00F94118813B2
:102E30007C15A00F941188137C1500000000AE15BE
:102E400070170000AE1570170000D007A00F00002B
:102E500000000C42A69B443B0000A04000000C4236
:102E6000A69B443B0000A04000000C42A69B443BB4
:102E70000000A0400000F041000000000AD7A33B82
:102E800000007041000000000000A040CDCCCC3D0F
:102E900000000000000000000000204200000000D0
:102EA0000000A040295C8F3D000000000AD7A33B32
:102EB00000002041000000000000A04000000000D1
:102EC0000000000000000000000000000000000002
:102ED00000000000000000000000000000000000F2
:040000050800018965
:00000001FF
